{
  "address": "0xBaa3A8F6eA4a659DF879B840C091294179D46c91",
  "abi": [
    {
      "inputs": [
        {
          "internalType": "string",
          "name": "_name",
          "type": "string"
        },
        {
          "internalType": "contract IVotes",
          "name": "_token",
          "type": "address"
        },
        {
          "internalType": "contract TimelockController",
          "name": "_timelock",
          "type": "address"
        },
        {
          "internalType": "uint48",
          "name": "_initialVotingDelay",
          "type": "uint48"
        },
        {
          "internalType": "uint32",
          "name": "_initialVotingPeriod",
          "type": "uint32"
        },
        {
          "internalType": "uint256",
          "name": "_initialProposalThreshold",
          "type": "uint256"
        },
        {
          "internalType": "uint256",
          "name": "_quorumNumeratorValue",
          "type": "uint256"
        },
        {
          "internalType": "uint48",
          "name": "_initialVoteExtension",
          "type": "uint48"
        }
      ],
      "stateMutability": "nonpayable",
      "type": "constructor"
    },
    {
      "inputs": [],
      "name": "CheckpointUnorderedInsertion",
      "type": "error"
    },
    {
      "inputs": [],
      "name": "FailedInnerCall",
      "type": "error"
    },
    {
      "inputs": [
        {
          "internalType": "address",
          "name": "voter",
          "type": "address"
        }
      ],
      "name": "GovernorAlreadyCastVote",
      "type": "error"
    },
    {
      "inputs": [
        {
          "internalType": "uint256",
          "name": "proposalId",
          "type": "uint256"
        }
      ],
      "name": "GovernorAlreadyQueuedProposal",
      "type": "error"
    },
    {
      "inputs": [],
      "name": "GovernorDisabledDeposit",
      "type": "error"
    },
    {
      "inputs": [
        {
          "internalType": "address",
          "name": "proposer",
          "type": "address"
        },
        {
          "internalType": "uint256",
          "name": "votes",
          "type": "uint256"
        },
        {
          "internalType": "uint256",
          "name": "threshold",
          "type": "uint256"
        }
      ],
      "name": "GovernorInsufficientProposerVotes",
      "type": "error"
    },
    {
      "inputs": [
        {
          "internalType": "uint256",
          "name": "targets",
          "type": "uint256"
        },
        {
          "internalType": "uint256",
          "name": "calldatas",
          "type": "uint256"
        },
        {
          "internalType": "uint256",
          "name": "values",
          "type": "uint256"
        }
      ],
      "name": "GovernorInvalidProposalLength",
      "type": "error"
    },
    {
      "inputs": [
        {
          "internalType": "uint256",
          "name": "quorumNumerator",
          "type": "uint256"
        },
        {
          "internalType": "uint256",
          "name": "quorumDenominator",
          "type": "uint256"
        }
      ],
      "name": "GovernorInvalidQuorumFraction",
      "type": "error"
    },
    {
      "inputs": [
        {
          "internalType": "address",
          "name": "voter",
          "type": "address"
        }
      ],
      "name": "GovernorInvalidSignature",
      "type": "error"
    },
    {
      "inputs": [],
      "name": "GovernorInvalidVoteType",
      "type": "error"
    },
    {
      "inputs": [
        {
          "internalType": "uint256",
          "name": "votingPeriod",
          "type": "uint256"
        }
      ],
      "name": "GovernorInvalidVotingPeriod",
      "type": "error"
    },
    {
      "inputs": [
        {
          "internalType": "uint256",
          "name": "proposalId",
          "type": "uint256"
        }
      ],
      "name": "GovernorNonexistentProposal",
      "type": "error"
    },
    {
      "inputs": [
        {
          "internalType": "uint256",
          "name": "proposalId",
          "type": "uint256"
        }
      ],
      "name": "GovernorNotQueuedProposal",
      "type": "error"
    },
    {
      "inputs": [
        {
          "internalType": "address",
          "name": "account",
          "type": "address"
        }
      ],
      "name": "GovernorOnlyExecutor",
      "type": "error"
    },
    {
      "inputs": [
        {
          "internalType": "address",
          "name": "account",
          "type": "address"
        }
      ],
      "name": "GovernorOnlyProposer",
      "type": "error"
    },
    {
      "inputs": [],
      "name": "GovernorQueueNotImplemented",
      "type": "error"
    },
    {
      "inputs": [
        {
          "internalType": "address",
          "name": "proposer",
          "type": "address"
        }
      ],
      "name": "GovernorRestrictedProposer",
      "type": "error"
    },
    {
      "inputs": [
        {
          "internalType": "uint256",
          "name": "proposalId",
          "type": "uint256"
        },
        {
          "internalType": "enum IGovernor.ProposalState",
          "name": "current",
          "type": "uint8"
        },
        {
          "internalType": "bytes32",
          "name": "expectedStates",
          "type": "bytes32"
        }
      ],
      "name": "GovernorUnexpectedProposalState",
      "type": "error"
    },
    {
      "inputs": [
        {
          "internalType": "address",
          "name": "account",
          "type": "address"
        },
        {
          "internalType": "uint256",
          "name": "currentNonce",
          "type": "uint256"
        }
      ],
      "name": "InvalidAccountNonce",
      "type": "error"
    },
    {
      "inputs": [],
      "name": "InvalidShortString",
      "type": "error"
    },
    {
      "inputs": [
        {
          "internalType": "address",
          "name": "owner",
          "type": "address"
        }
      ],
      "name": "OwnableInvalidOwner",
      "type": "error"
    },
    {
      "inputs": [
        {
          "internalType": "address",
          "name": "account",
          "type": "address"
        }
      ],
      "name": "OwnableUnauthorizedAccount",
      "type": "error"
    },
    {
      "inputs": [],
      "name": "QueueEmpty",
      "type": "error"
    },
    {
      "inputs": [],
      "name": "QueueFull",
      "type": "error"
    },
    {
      "inputs": [
        {
          "internalType": "uint8",
          "name": "bits",
          "type": "uint8"
        },
        {
          "internalType": "uint256",
          "name": "value",
          "type": "uint256"
        }
      ],
      "name": "SafeCastOverflowedUintDowncast",
      "type": "error"
    },
    {
      "inputs": [
        {
          "internalType": "string",
          "name": "str",
          "type": "string"
        }
      ],
      "name": "StringTooLong",
      "type": "error"
    },
    {
      "anonymous": false,
      "inputs": [],
      "name": "EIP712DomainChanged",
      "type": "event"
    },
    {
      "anonymous": false,
      "inputs": [
        {
          "indexed": false,
          "internalType": "uint64",
          "name": "oldVoteExtension",
          "type": "uint64"
        },
        {
          "indexed": false,
          "internalType": "uint64",
          "name": "newVoteExtension",
          "type": "uint64"
        }
      ],
      "name": "LateQuorumVoteExtensionSet",
      "type": "event"
    },
    {
      "anonymous": false,
      "inputs": [
        {
          "indexed": true,
          "internalType": "address",
          "name": "previousOwner",
          "type": "address"
        },
        {
          "indexed": true,
          "internalType": "address",
          "name": "newOwner",
          "type": "address"
        }
      ],
      "name": "OwnershipTransferred",
      "type": "event"
    },
    {
      "anonymous": false,
      "inputs": [
        {
          "indexed": false,
          "internalType": "uint256",
          "name": "proposalId",
          "type": "uint256"
        }
      ],
      "name": "ProposalCanceled",
      "type": "event"
    },
    {
      "anonymous": false,
      "inputs": [
        {
          "indexed": false,
          "internalType": "uint256",
          "name": "proposalId",
          "type": "uint256"
        },
        {
          "indexed": false,
          "internalType": "address",
          "name": "proposer",
          "type": "address"
        },
        {
          "indexed": false,
          "internalType": "address[]",
          "name": "targets",
          "type": "address[]"
        },
        {
          "indexed": false,
          "internalType": "uint256[]",
          "name": "values",
          "type": "uint256[]"
        },
        {
          "indexed": false,
          "internalType": "string[]",
          "name": "signatures",
          "type": "string[]"
        },
        {
          "indexed": false,
          "internalType": "bytes[]",
          "name": "calldatas",
          "type": "bytes[]"
        },
        {
          "indexed": false,
          "internalType": "uint256",
          "name": "voteStart",
          "type": "uint256"
        },
        {
          "indexed": false,
          "internalType": "uint256",
          "name": "voteEnd",
          "type": "uint256"
        },
        {
          "indexed": false,
          "internalType": "string",
          "name": "description",
          "type": "string"
        }
      ],
      "name": "ProposalCreated",
      "type": "event"
    },
    {
      "anonymous": false,
      "inputs": [
        {
          "indexed": false,
          "internalType": "uint256",
          "name": "proposalId",
          "type": "uint256"
        }
      ],
      "name": "ProposalExecuted",
      "type": "event"
    },
    {
      "anonymous": false,
      "inputs": [
        {
          "indexed": true,
          "internalType": "uint256",
          "name": "proposalId",
          "type": "uint256"
        },
        {
          "indexed": false,
          "internalType": "uint64",
          "name": "extendedDeadline",
          "type": "uint64"
        }
      ],
      "name": "ProposalExtended",
      "type": "event"
    },
    {
      "anonymous": false,
      "inputs": [
        {
          "indexed": false,
          "internalType": "uint256",
          "name": "proposalId",
          "type": "uint256"
        },
        {
          "indexed": false,
          "internalType": "uint256",
          "name": "etaSeconds",
          "type": "uint256"
        }
      ],
      "name": "ProposalQueued",
      "type": "event"
    },
    {
      "anonymous": false,
      "inputs": [
        {
          "indexed": false,
          "internalType": "uint256",
          "name": "oldProposalThreshold",
          "type": "uint256"
        },
        {
          "indexed": false,
          "internalType": "uint256",
          "name": "newProposalThreshold",
          "type": "uint256"
        }
      ],
      "name": "ProposalThresholdSet",
      "type": "event"
    },
    {
      "anonymous": false,
      "inputs": [
        {
          "indexed": false,
          "internalType": "uint256",
          "name": "oldQuorumNumerator",
          "type": "uint256"
        },
        {
          "indexed": false,
          "internalType": "uint256",
          "name": "newQuorumNumerator",
          "type": "uint256"
        }
      ],
      "name": "QuorumNumeratorUpdated",
      "type": "event"
    },
    {
      "anonymous": false,
      "inputs": [
        {
          "indexed": false,
          "internalType": "address",
          "name": "oldTimelock",
          "type": "address"
        },
        {
          "indexed": false,
          "internalType": "address",
          "name": "newTimelock",
          "type": "address"
        }
      ],
      "name": "TimelockChange",
      "type": "event"
    },
    {
      "anonymous": false,
      "inputs": [
        {
          "indexed": true,
          "internalType": "address",
          "name": "voter",
          "type": "address"
        },
        {
          "indexed": false,
          "internalType": "uint256",
          "name": "proposalId",
          "type": "uint256"
        },
        {
          "indexed": false,
          "internalType": "uint8",
          "name": "support",
          "type": "uint8"
        },
        {
          "indexed": false,
          "internalType": "uint256",
          "name": "weight",
          "type": "uint256"
        },
        {
          "indexed": false,
          "internalType": "string",
          "name": "reason",
          "type": "string"
        }
      ],
      "name": "VoteCast",
      "type": "event"
    },
    {
      "anonymous": false,
      "inputs": [
        {
          "indexed": true,
          "internalType": "address",
          "name": "voter",
          "type": "address"
        },
        {
          "indexed": false,
          "internalType": "uint256",
          "name": "proposalId",
          "type": "uint256"
        },
        {
          "indexed": false,
          "internalType": "uint8",
          "name": "support",
          "type": "uint8"
        },
        {
          "indexed": false,
          "internalType": "uint256",
          "name": "weight",
          "type": "uint256"
        },
        {
          "indexed": false,
          "internalType": "string",
          "name": "reason",
          "type": "string"
        },
        {
          "indexed": false,
          "internalType": "bytes",
          "name": "params",
          "type": "bytes"
        }
      ],
      "name": "VoteCastWithParams",
      "type": "event"
    },
    {
      "anonymous": false,
      "inputs": [
        {
          "indexed": false,
          "internalType": "uint256",
          "name": "oldVotingDelay",
          "type": "uint256"
        },
        {
          "indexed": false,
          "internalType": "uint256",
          "name": "newVotingDelay",
          "type": "uint256"
        }
      ],
      "name": "VotingDelaySet",
      "type": "event"
    },
    {
      "anonymous": false,
      "inputs": [
        {
          "indexed": false,
          "internalType": "uint256",
          "name": "oldVotingPeriod",
          "type": "uint256"
        },
        {
          "indexed": false,
          "internalType": "uint256",
          "name": "newVotingPeriod",
          "type": "uint256"
        }
      ],
      "name": "VotingPeriodSet",
      "type": "event"
    },
    {
      "anonymous": false,
      "inputs": [
        {
          "indexed": false,
          "internalType": "uint256",
          "name": "_StreamID",
          "type": "uint256"
        },
        {
          "indexed": false,
          "internalType": "address",
          "name": "user",
          "type": "address"
        }
      ],
      "name": "addedstreamId",
      "type": "event"
    },
    {
      "inputs": [],
      "name": "BALLOT_TYPEHASH",
      "outputs": [
        {
          "internalType": "bytes32",
          "name": "",
          "type": "bytes32"
        }
      ],
      "stateMutability": "view",
      "type": "function"
    },
    {
      "inputs": [],
      "name": "CLOCK_MODE",
      "outputs": [
        {
          "internalType": "string",
          "name": "",
          "type": "string"
        }
      ],
      "stateMutability": "view",
      "type": "function"
    },
    {
      "inputs": [],
      "name": "COUNTING_MODE",
      "outputs": [
        {
          "internalType": "string",
          "name": "",
          "type": "string"
        }
      ],
      "stateMutability": "pure",
      "type": "function"
    },
    {
      "inputs": [],
      "name": "EXTENDED_BALLOT_TYPEHASH",
      "outputs": [
        {
          "internalType": "bytes32",
          "name": "",
          "type": "bytes32"
        }
      ],
      "stateMutability": "view",
      "type": "function"
    },
    {
      "inputs": [
        {
          "internalType": "uint256",
          "name": "_streamID",
          "type": "uint256"
        },
        {
          "internalType": "address",
          "name": "user",
          "type": "address"
        }
      ],
      "name": "addStreamID",
      "outputs": [],
      "stateMutability": "nonpayable",
      "type": "function"
    },
    {
      "inputs": [
        {
          "internalType": "uint256",
          "name": "proposalId",
          "type": "uint256"
        }
      ],
      "name": "cancel",
      "outputs": [],
      "stateMutability": "nonpayable",
      "type": "function"
    },
    {
      "inputs": [
        {
          "internalType": "address[]",
          "name": "targets",
          "type": "address[]"
        },
        {
          "internalType": "uint256[]",
          "name": "values",
          "type": "uint256[]"
        },
        {
          "internalType": "bytes[]",
          "name": "calldatas",
          "type": "bytes[]"
        },
        {
          "internalType": "bytes32",
          "name": "descriptionHash",
          "type": "bytes32"
        }
      ],
      "name": "cancel",
      "outputs": [
        {
          "internalType": "uint256",
          "name": "",
          "type": "uint256"
        }
      ],
      "stateMutability": "nonpayable",
      "type": "function"
    },
    {
      "inputs": [
        {
          "internalType": "uint256",
          "name": "proposalId",
          "type": "uint256"
        },
        {
          "internalType": "uint8",
          "name": "support",
          "type": "uint8"
        }
      ],
      "name": "castVote",
      "outputs": [
        {
          "internalType": "uint256",
          "name": "",
          "type": "uint256"
        }
      ],
      "stateMutability": "nonpayable",
      "type": "function"
    },
    {
      "inputs": [
        {
          "internalType": "uint256",
          "name": "proposalId",
          "type": "uint256"
        },
        {
          "internalType": "uint8",
          "name": "support",
          "type": "uint8"
        },
        {
          "internalType": "address",
          "name": "voter",
          "type": "address"
        },
        {
          "internalType": "bytes",
          "name": "signature",
          "type": "bytes"
        }
      ],
      "name": "castVoteBySig",
      "outputs": [
        {
          "internalType": "uint256",
          "name": "",
          "type": "uint256"
        }
      ],
      "stateMutability": "nonpayable",
      "type": "function"
    },
    {
      "inputs": [
        {
          "internalType": "uint256",
          "name": "proposalId",
          "type": "uint256"
        },
        {
          "internalType": "uint8",
          "name": "support",
          "type": "uint8"
        },
        {
          "internalType": "string",
          "name": "reason",
          "type": "string"
        }
      ],
      "name": "castVoteWithReason",
      "outputs": [
        {
          "internalType": "uint256",
          "name": "",
          "type": "uint256"
        }
      ],
      "stateMutability": "nonpayable",
      "type": "function"
    },
    {
      "inputs": [
        {
          "internalType": "uint256",
          "name": "proposalId",
          "type": "uint256"
        },
        {
          "internalType": "uint8",
          "name": "support",
          "type": "uint8"
        },
        {
          "internalType": "string",
          "name": "reason",
          "type": "string"
        },
        {
          "internalType": "bytes",
          "name": "params",
          "type": "bytes"
        }
      ],
      "name": "castVoteWithReasonAndParams",
      "outputs": [
        {
          "internalType": "uint256",
          "name": "",
          "type": "uint256"
        }
      ],
      "stateMutability": "nonpayable",
      "type": "function"
    },
    {
      "inputs": [
        {
          "internalType": "uint256",
          "name": "proposalId",
          "type": "uint256"
        },
        {
          "internalType": "uint8",
          "name": "support",
          "type": "uint8"
        },
        {
          "internalType": "address",
          "name": "voter",
          "type": "address"
        },
        {
          "internalType": "string",
          "name": "reason",
          "type": "string"
        },
        {
          "internalType": "bytes",
          "name": "params",
          "type": "bytes"
        },
        {
          "internalType": "bytes",
          "name": "signature",
          "type": "bytes"
        }
      ],
      "name": "castVoteWithReasonAndParamsBySig",
      "outputs": [
        {
          "internalType": "uint256",
          "name": "",
          "type": "uint256"
        }
      ],
      "stateMutability": "nonpayable",
      "type": "function"
    },
    {
      "inputs": [],
      "name": "clock",
      "outputs": [
        {
          "internalType": "uint48",
          "name": "",
          "type": "uint48"
        }
      ],
      "stateMutability": "view",
      "type": "function"
    },
    {
      "inputs": [],
      "name": "eip712Domain",
      "outputs": [
        {
          "internalType": "bytes1",
          "name": "fields",
          "type": "bytes1"
        },
        {
          "internalType": "string",
          "name": "name",
          "type": "string"
        },
        {
          "internalType": "string",
          "name": "version",
          "type": "string"
        },
        {
          "internalType": "uint256",
          "name": "chainId",
          "type": "uint256"
        },
        {
          "internalType": "address",
          "name": "verifyingContract",
          "type": "address"
        },
        {
          "internalType": "bytes32",
          "name": "salt",
          "type": "bytes32"
        },
        {
          "internalType": "uint256[]",
          "name": "extensions",
          "type": "uint256[]"
        }
      ],
      "stateMutability": "view",
      "type": "function"
    },
    {
      "inputs": [
        {
          "internalType": "address[]",
          "name": "targets",
          "type": "address[]"
        },
        {
          "internalType": "uint256[]",
          "name": "values",
          "type": "uint256[]"
        },
        {
          "internalType": "bytes[]",
          "name": "calldatas",
          "type": "bytes[]"
        },
        {
          "internalType": "bytes32",
          "name": "descriptionHash",
          "type": "bytes32"
        }
      ],
      "name": "execute",
      "outputs": [
        {
          "internalType": "uint256",
          "name": "",
          "type": "uint256"
        }
      ],
      "stateMutability": "payable",
      "type": "function"
    },
    {
      "inputs": [
        {
          "internalType": "uint256",
          "name": "proposalId",
          "type": "uint256"
        }
      ],
      "name": "execute",
      "outputs": [],
      "stateMutability": "payable",
      "type": "function"
    },
    {
      "inputs": [
        {
          "internalType": "address",
          "name": "_user",
          "type": "address"
        }
      ],
      "name": "getRemainingDepositedAmount",
      "outputs": [
        {
          "internalType": "uint128",
          "name": "",
          "type": "uint128"
        }
      ],
      "stateMutability": "view",
      "type": "function"
    },
    {
      "inputs": [],
      "name": "getStreamID",
      "outputs": [
        {
          "internalType": "uint256",
          "name": "",
          "type": "uint256"
        }
      ],
      "stateMutability": "view",
      "type": "function"
    },
    {
      "inputs": [
        {
          "internalType": "address",
          "name": "account",
          "type": "address"
        },
        {
          "internalType": "uint256",
          "name": "timepoint",
          "type": "uint256"
        }
      ],
      "name": "getVotes",
      "outputs": [
        {
          "internalType": "uint256",
          "name": "",
          "type": "uint256"
        }
      ],
      "stateMutability": "view",
      "type": "function"
    },
    {
      "inputs": [
        {
          "internalType": "address",
          "name": "account",
          "type": "address"
        },
        {
          "internalType": "uint256",
          "name": "timepoint",
          "type": "uint256"
        },
        {
          "internalType": "bytes",
          "name": "params",
          "type": "bytes"
        }
      ],
      "name": "getVotesWithParams",
      "outputs": [
        {
          "internalType": "uint256",
          "name": "",
          "type": "uint256"
        }
      ],
      "stateMutability": "view",
      "type": "function"
    },
    {
      "inputs": [
        {
          "internalType": "uint256",
          "name": "proposalId",
          "type": "uint256"
        },
        {
          "internalType": "address",
          "name": "account",
          "type": "address"
        }
      ],
      "name": "hasVoted",
      "outputs": [
        {
          "internalType": "bool",
          "name": "",
          "type": "bool"
        }
      ],
      "stateMutability": "view",
      "type": "function"
    },
    {
      "inputs": [
        {
          "internalType": "address[]",
          "name": "targets",
          "type": "address[]"
        },
        {
          "internalType": "uint256[]",
          "name": "values",
          "type": "uint256[]"
        },
        {
          "internalType": "bytes[]",
          "name": "calldatas",
          "type": "bytes[]"
        },
        {
          "internalType": "bytes32",
          "name": "descriptionHash",
          "type": "bytes32"
        }
      ],
      "name": "hashProposal",
      "outputs": [
        {
          "internalType": "uint256",
          "name": "",
          "type": "uint256"
        }
      ],
      "stateMutability": "pure",
      "type": "function"
    },
    {
      "inputs": [],
      "name": "lateQuorumVoteExtension",
      "outputs": [
        {
          "internalType": "uint48",
          "name": "",
          "type": "uint48"
        }
      ],
      "stateMutability": "view",
      "type": "function"
    },
    {
      "inputs": [],
      "name": "name",
      "outputs": [
        {
          "internalType": "string",
          "name": "",
          "type": "string"
        }
      ],
      "stateMutability": "view",
      "type": "function"
    },
    {
      "inputs": [
        {
          "internalType": "address",
          "name": "owner",
          "type": "address"
        }
      ],
      "name": "nonces",
      "outputs": [
        {
          "internalType": "uint256",
          "name": "",
          "type": "uint256"
        }
      ],
      "stateMutability": "view",
      "type": "function"
    },
    {
      "inputs": [
        {
          "internalType": "address",
          "name": "",
          "type": "address"
        },
        {
          "internalType": "address",
          "name": "",
          "type": "address"
        },
        {
          "internalType": "uint256[]",
          "name": "",
          "type": "uint256[]"
        },
        {
          "internalType": "uint256[]",
          "name": "",
          "type": "uint256[]"
        },
        {
          "internalType": "bytes",
          "name": "",
          "type": "bytes"
        }
      ],
      "name": "onERC1155BatchReceived",
      "outputs": [
        {
          "internalType": "bytes4",
          "name": "",
          "type": "bytes4"
        }
      ],
      "stateMutability": "nonpayable",
      "type": "function"
    },
    {
      "inputs": [
        {
          "internalType": "address",
          "name": "",
          "type": "address"
        },
        {
          "internalType": "address",
          "name": "",
          "type": "address"
        },
        {
          "internalType": "uint256",
          "name": "",
          "type": "uint256"
        },
        {
          "internalType": "uint256",
          "name": "",
          "type": "uint256"
        },
        {
          "internalType": "bytes",
          "name": "",
          "type": "bytes"
        }
      ],
      "name": "onERC1155Received",
      "outputs": [
        {
          "internalType": "bytes4",
          "name": "",
          "type": "bytes4"
        }
      ],
      "stateMutability": "nonpayable",
      "type": "function"
    },
    {
      "inputs": [
        {
          "internalType": "address",
          "name": "",
          "type": "address"
        },
        {
          "internalType": "address",
          "name": "",
          "type": "address"
        },
        {
          "internalType": "uint256",
          "name": "",
          "type": "uint256"
        },
        {
          "internalType": "bytes",
          "name": "",
          "type": "bytes"
        }
      ],
      "name": "onERC721Received",
      "outputs": [
        {
          "internalType": "bytes4",
          "name": "",
          "type": "bytes4"
        }
      ],
      "stateMutability": "nonpayable",
      "type": "function"
    },
    {
      "inputs": [],
      "name": "owner",
      "outputs": [
        {
          "internalType": "address",
          "name": "",
          "type": "address"
        }
      ],
      "stateMutability": "view",
      "type": "function"
    },
    {
      "inputs": [],
      "name": "proposalCount",
      "outputs": [
        {
          "internalType": "uint256",
          "name": "",
          "type": "uint256"
        }
      ],
      "stateMutability": "view",
      "type": "function"
    },
    {
      "inputs": [
        {
          "internalType": "uint256",
          "name": "proposalId",
          "type": "uint256"
        }
      ],
      "name": "proposalDeadline",
      "outputs": [
        {
          "internalType": "uint256",
          "name": "",
          "type": "uint256"
        }
      ],
      "stateMutability": "view",
      "type": "function"
    },
    {
      "inputs": [
        {
          "internalType": "uint256",
          "name": "proposalId",
          "type": "uint256"
        }
      ],
      "name": "proposalDetails",
      "outputs": [
        {
          "internalType": "address[]",
          "name": "",
          "type": "address[]"
        },
        {
          "internalType": "uint256[]",
          "name": "",
          "type": "uint256[]"
        },
        {
          "internalType": "bytes[]",
          "name": "",
          "type": "bytes[]"
        },
        {
          "internalType": "bytes32",
          "name": "",
          "type": "bytes32"
        }
      ],
      "stateMutability": "view",
      "type": "function"
    },
    {
      "inputs": [
        {
          "internalType": "uint256",
          "name": "index",
          "type": "uint256"
        }
      ],
      "name": "proposalDetailsAt",
      "outputs": [
        {
          "internalType": "uint256",
          "name": "",
          "type": "uint256"
        },
        {
          "internalType": "address[]",
          "name": "",
          "type": "address[]"
        },
        {
          "internalType": "uint256[]",
          "name": "",
          "type": "uint256[]"
        },
        {
          "internalType": "bytes[]",
          "name": "",
          "type": "bytes[]"
        },
        {
          "internalType": "bytes32",
          "name": "",
          "type": "bytes32"
        }
      ],
      "stateMutability": "view",
      "type": "function"
    },
    {
      "inputs": [
        {
          "internalType": "uint256",
          "name": "proposalId",
          "type": "uint256"
        }
      ],
      "name": "proposalEta",
      "outputs": [
        {
          "internalType": "uint256",
          "name": "",
          "type": "uint256"
        }
      ],
      "stateMutability": "view",
      "type": "function"
    },
    {
      "inputs": [
        {
          "internalType": "uint256",
          "name": "proposalId",
          "type": "uint256"
        }
      ],
      "name": "proposalNeedsQueuing",
      "outputs": [
        {
          "internalType": "bool",
          "name": "",
          "type": "bool"
        }
      ],
      "stateMutability": "view",
      "type": "function"
    },
    {
      "inputs": [
        {
          "internalType": "uint256",
          "name": "proposalId",
          "type": "uint256"
        }
      ],
      "name": "proposalProposer",
      "outputs": [
        {
          "internalType": "address",
          "name": "",
          "type": "address"
        }
      ],
      "stateMutability": "view",
      "type": "function"
    },
    {
      "inputs": [
        {
          "internalType": "uint256",
          "name": "proposalId",
          "type": "uint256"
        }
      ],
      "name": "proposalSnapshot",
      "outputs": [
        {
          "internalType": "uint256",
          "name": "",
          "type": "uint256"
        }
      ],
      "stateMutability": "view",
      "type": "function"
    },
    {
      "inputs": [],
      "name": "proposalThreshold",
      "outputs": [
        {
          "internalType": "uint256",
          "name": "",
          "type": "uint256"
        }
      ],
      "stateMutability": "view",
      "type": "function"
    },
    {
      "inputs": [
        {
          "internalType": "uint256",
          "name": "proposalId",
          "type": "uint256"
        }
      ],
      "name": "proposalVotes",
      "outputs": [
        {
          "internalType": "uint256",
          "name": "againstVotes",
          "type": "uint256"
        },
        {
          "internalType": "uint256",
          "name": "forVotes",
          "type": "uint256"
        },
        {
          "internalType": "uint256",
          "name": "abstainVotes",
          "type": "uint256"
        }
      ],
      "stateMutability": "view",
      "type": "function"
    },
    {
      "inputs": [
        {
          "internalType": "address[]",
          "name": "targets",
          "type": "address[]"
        },
        {
          "internalType": "uint256[]",
          "name": "values",
          "type": "uint256[]"
        },
        {
          "internalType": "bytes[]",
          "name": "calldatas",
          "type": "bytes[]"
        },
        {
          "internalType": "string",
          "name": "description",
          "type": "string"
        }
      ],
      "name": "propose",
      "outputs": [
        {
          "internalType": "uint256",
          "name": "",
          "type": "uint256"
        }
      ],
      "stateMutability": "nonpayable",
      "type": "function"
    },
    {
      "inputs": [
        {
          "internalType": "address[]",
          "name": "targets",
          "type": "address[]"
        },
        {
          "internalType": "uint256[]",
          "name": "values",
          "type": "uint256[]"
        },
        {
          "internalType": "bytes[]",
          "name": "calldatas",
          "type": "bytes[]"
        },
        {
          "internalType": "bytes32",
          "name": "descriptionHash",
          "type": "bytes32"
        }
      ],
      "name": "queue",
      "outputs": [
        {
          "internalType": "uint256",
          "name": "",
          "type": "uint256"
        }
      ],
      "stateMutability": "nonpayable",
      "type": "function"
    },
    {
      "inputs": [
        {
          "internalType": "uint256",
          "name": "proposalId",
          "type": "uint256"
        }
      ],
      "name": "queue",
      "outputs": [],
      "stateMutability": "nonpayable",
      "type": "function"
    },
    {
      "inputs": [
        {
          "internalType": "uint256",
          "name": "blockNumber",
          "type": "uint256"
        }
      ],
      "name": "quorum",
      "outputs": [
        {
          "internalType": "uint256",
          "name": "",
          "type": "uint256"
        }
      ],
      "stateMutability": "view",
      "type": "function"
    },
    {
      "inputs": [],
      "name": "quorumDenominator",
      "outputs": [
        {
          "internalType": "uint256",
          "name": "",
          "type": "uint256"
        }
      ],
      "stateMutability": "view",
      "type": "function"
    },
    {
      "inputs": [
        {
          "internalType": "uint256",
          "name": "timepoint",
          "type": "uint256"
        }
      ],
      "name": "quorumNumerator",
      "outputs": [
        {
          "internalType": "uint256",
          "name": "",
          "type": "uint256"
        }
      ],
      "stateMutability": "view",
      "type": "function"
    },
    {
      "inputs": [],
      "name": "quorumNumerator",
      "outputs": [
        {
          "internalType": "uint256",
          "name": "",
          "type": "uint256"
        }
      ],
      "stateMutability": "view",
      "type": "function"
    },
    {
      "inputs": [
        {
          "internalType": "address",
          "name": "target",
          "type": "address"
        },
        {
          "internalType": "uint256",
          "name": "value",
          "type": "uint256"
        },
        {
          "internalType": "bytes",
          "name": "data",
          "type": "bytes"
        }
      ],
      "name": "relay",
      "outputs": [],
      "stateMutability": "payable",
      "type": "function"
    },
    {
      "inputs": [],
      "name": "renounceOwnership",
      "outputs": [],
      "stateMutability": "nonpayable",
      "type": "function"
    },
    {
      "inputs": [],
      "name": "sablierV2Lockup",
      "outputs": [
        {
          "internalType": "contract ISablierV2Lockup",
          "name": "",
          "type": "address"
        }
      ],
      "stateMutability": "view",
      "type": "function"
    },
    {
      "inputs": [
        {
          "internalType": "uint48",
          "name": "newVoteExtension",
          "type": "uint48"
        }
      ],
      "name": "setLateQuorumVoteExtension",
      "outputs": [],
      "stateMutability": "nonpayable",
      "type": "function"
    },
    {
      "inputs": [
        {
          "internalType": "uint256",
          "name": "newProposalThreshold",
          "type": "uint256"
        }
      ],
      "name": "setProposalThreshold",
      "outputs": [],
      "stateMutability": "nonpayable",
      "type": "function"
    },
    {
      "inputs": [
        {
          "internalType": "uint48",
          "name": "newVotingDelay",
          "type": "uint48"
        }
      ],
      "name": "setVotingDelay",
      "outputs": [],
      "stateMutability": "nonpayable",
      "type": "function"
    },
    {
      "inputs": [
        {
          "internalType": "uint32",
          "name": "newVotingPeriod",
          "type": "uint32"
        }
      ],
      "name": "setVotingPeriod",
      "outputs": [],
      "stateMutability": "nonpayable",
      "type": "function"
    },
    {
      "inputs": [
        {
          "internalType": "uint256",
          "name": "proposalId",
          "type": "uint256"
        }
      ],
      "name": "state",
      "outputs": [
        {
          "internalType": "enum IGovernor.ProposalState",
          "name": "",
          "type": "uint8"
        }
      ],
      "stateMutability": "view",
      "type": "function"
    },
    {
      "inputs": [
        {
          "internalType": "bytes4",
          "name": "interfaceId",
          "type": "bytes4"
        }
      ],
      "name": "supportsInterface",
      "outputs": [
        {
          "internalType": "bool",
          "name": "",
          "type": "bool"
        }
      ],
      "stateMutability": "view",
      "type": "function"
    },
    {
      "inputs": [],
      "name": "timelock",
      "outputs": [
        {
          "internalType": "address",
          "name": "",
          "type": "address"
        }
      ],
      "stateMutability": "view",
      "type": "function"
    },
    {
      "inputs": [],
      "name": "token",
      "outputs": [
        {
          "internalType": "contract IERC5805",
          "name": "",
          "type": "address"
        }
      ],
      "stateMutability": "view",
      "type": "function"
    },
    {
      "inputs": [
        {
          "internalType": "address",
          "name": "newOwner",
          "type": "address"
        }
      ],
      "name": "transferOwnership",
      "outputs": [],
      "stateMutability": "nonpayable",
      "type": "function"
    },
    {
      "inputs": [
        {
          "internalType": "uint256",
          "name": "newQuorumNumerator",
          "type": "uint256"
        }
      ],
      "name": "updateQuorumNumerator",
      "outputs": [],
      "stateMutability": "nonpayable",
      "type": "function"
    },
    {
      "inputs": [
        {
          "internalType": "contract TimelockController",
          "name": "newTimelock",
          "type": "address"
        }
      ],
      "name": "updateTimelock",
      "outputs": [],
      "stateMutability": "nonpayable",
      "type": "function"
    },
    {
      "inputs": [],
      "name": "version",
      "outputs": [
        {
          "internalType": "string",
          "name": "",
          "type": "string"
        }
      ],
      "stateMutability": "view",
      "type": "function"
    },
    {
      "inputs": [],
      "name": "votingDelay",
      "outputs": [
        {
          "internalType": "uint256",
          "name": "",
          "type": "uint256"
        }
      ],
      "stateMutability": "view",
      "type": "function"
    },
    {
      "inputs": [],
      "name": "votingPeriod",
      "outputs": [
        {
          "internalType": "uint256",
          "name": "",
          "type": "uint256"
        }
      ],
      "stateMutability": "view",
      "type": "function"
    },
    {
      "stateMutability": "payable",
      "type": "receive"
    }
  ],
  "transactionHash": "0xdc8bc97a7a2ebbc6c3279196ed77eaaffa912c6ea4fe27601680f061f13c4dd2",
  "args": [
    "WE LOVE TALLY DAO",
    "0x8351fF2040EceD59101bE40758d638C2989f43c9",
    "0xeb0c1e8317d79Bf079192e9E1099a4B4eABaD27F",
    7200,
    50400,
    0,
    4,
    7200
  ],
  "numDeployments": 1,
  "solcInputHash": "31b9a200ee76d70e61b9a300b0d3408a",
  "bytecode": "0x610180604052601280546001600160a01b031916737a43f8a888fa15e68c103e18b0439eb1e98e43011790553480156200003857600080fd5b5060405162006398380380620063988339810160408190526200005b91620008fe565b858282898888888e80620000836040805180820190915260018152603160f81b602082015290565b3380620000ab57604051631e4fbdf760e01b8152600060048201526024015b60405180910390fd5b620000b681620001e0565b50620000c482600162000230565b61012052620000d581600262000230565b61014052815160208084019190912060e052815190820120610100524660a0526200016360e05161010051604080517f8b73c3c69bb8fe3d512ecc4cf759cc79239f7b179b0ffacaa9a75d522b39400f60208201529081019290925260608201524660808201523060a082015260009060c00160405160208183030381529060405280519060200120905090565b60805250503060c05260046200017a828262000ab8565b506200018890508362000269565b6200019382620002cf565b6200019e8162000372565b5050506001600160a01b031661016052620001b981620003b3565b50620001c58162000419565b50620001d181620004b9565b50505050505050505062000c1e565b600080546001600160a01b038381166001600160a01b0319831681178455604051919092169283917f8be0079c531659141344cd1fd0a4f28419497f9722a3daafe3b4186f6b6457e09190a35050565b60006020835110156200025057620002488362000522565b905062000263565b816200025d848262000ab8565b5060ff90505b92915050565b6009546040805165ffffffffffff928316815291831660208301527fc565b045403dc03c2eea82b81a0465edad9e2e7fc4d97e11421c209da93d7a93910160405180910390a16009805465ffffffffffff191665ffffffffffff92909216919091179055565b8063ffffffff16600003620002fb5760405163f1cfbf0560e01b815260006004820152602401620000a2565b6009546040805163ffffffff66010000000000009093048316815291831660208301527f7e3f7f0708a84de9203036abaa450dccc85ad5ff52f78c170f3edb55cf5e8828910160405180910390a16009805463ffffffff90921666010000000000000263ffffffff60301b19909216919091179055565b60085460408051918252602082018390527fccb45da8d5717e6c4544694297c4ba5cf151d455c9bb0ed4fc7a38411bc05461910160405180910390a1600855565b600d546040805165ffffffffffff928316815291831660208301527f7ca4ac117ed3cdce75c1161d8207c440389b1a15d69d096831664657c07dafc2910160405180910390a1600d805465ffffffffffff191665ffffffffffff92909216919091179055565b606480821115620004485760405163243e544560e01b81526004810183905260248101829052604401620000a2565b60006200045462000565565b9050620004796200046462000581565b6200046f8562000603565b600f91906200063d565b505060408051828152602081018590527f0553476bf02ef2726e8ce5ced78d63e26e602e4a2257b1f559418e24b4633997910160405180910390a1505050565b601054604080516001600160a01b03928316815291831660208301527f08f74ea46ef7894f65eabfb5e6e695de773a000b47c529ab559178069b226401910160405180910390a1601080546001600160a01b0319166001600160a01b0392909216919091179055565b600080829050601f8151111562000550578260405163305a27a960e01b8152600401620000a2919062000b84565b80516200055d8262000bb9565b179392505050565b600062000573600f6200065a565b6001600160d01b0316905090565b60006200058e6101605190565b6001600160a01b03166391ddadf46040518163ffffffff1660e01b8152600401602060405180830381865afa925050508015620005ea575060408051601f3d908101601f19168201909252620005e79181019062000bde565b60015b620005fe57620005f9620006aa565b905090565b919050565b60006001600160d01b0382111562000639576040516306dfcc6560e41b815260d0600482015260248101839052604401620000a2565b5090565b6000806200064d858585620006b7565b915091505b935093915050565b80546000908015620006a05762000686836200067860018462000bfc565b600091825260209091200190565b54660100000000000090046001600160d01b0316620006a3565b60005b9392505050565b6000620005f94362000849565b825460009081908015620007ea576000620006d9876200067860018562000bfc565b60408051808201909152905465ffffffffffff80821680845266010000000000009092046001600160d01b0316602084015291925090871610156200073157604051632520601d60e01b815260040160405180910390fd5b805165ffffffffffff80881691160362000785578462000758886200067860018662000bfc565b80546001600160d01b039290921666010000000000000265ffffffffffff909216919091179055620007d9565b6040805180820190915265ffffffffffff80881682526001600160d01b0380881660208085019182528b54600181018d5560008d815291909120945191519092166601000000000000029216919091179101555b602001519250839150620006529050565b50506040805180820190915265ffffffffffff80851682526001600160d01b0380851660208085019182528854600181018a5560008a815291822095519251909316660100000000000002919093161792019190915590508162000652565b600065ffffffffffff82111562000639576040516306dfcc6560e41b81526030600482015260248101839052604401620000a2565b634e487b7160e01b600052604160045260246000fd5b60005b83811015620008b157818101518382015260200162000897565b50506000910152565b80516001600160a01b0381168114620005fe57600080fd5b805165ffffffffffff81168114620005fe57600080fd5b805163ffffffff81168114620005fe57600080fd5b600080600080600080600080610100898b0312156200091c57600080fd5b88516001600160401b03808211156200093457600080fd5b818b0191508b601f8301126200094957600080fd5b8151818111156200095e576200095e6200087e565b604051601f8201601f19908116603f011681019083821181831017156200098957620009896200087e565b816040528281528e6020848701011115620009a357600080fd5b620009b683602083016020880162000894565b809c505050505050620009cc60208a01620008ba565b9650620009dc60408a01620008ba565b9550620009ec60608a01620008d2565b9450620009fc60808a01620008e9565b935060a0890151925060c0890151915062000a1a60e08a01620008d2565b90509295985092959890939650565b600181811c9082168062000a3e57607f821691505b60208210810362000a5f57634e487b7160e01b600052602260045260246000fd5b50919050565b601f82111562000ab357600081815260208120601f850160051c8101602086101562000a8e5750805b601f850160051c820191505b8181101562000aaf5782815560010162000a9a565b5050505b505050565b81516001600160401b0381111562000ad45762000ad46200087e565b62000aec8162000ae5845462000a29565b8462000a65565b602080601f83116001811462000b24576000841562000b0b5750858301515b600019600386901b1c1916600185901b17855562000aaf565b600085815260208120601f198616915b8281101562000b555788860151825594840194600190910190840162000b34565b508582101562000b745787850151600019600388901b60f8161c191681555b5050505050600190811b01905550565b602081526000825180602084015262000ba581604085016020870162000894565b601f01601f19169190910160400192915050565b8051602080830151919081101562000a5f5760001960209190910360031b1b16919050565b60006020828403121562000bf157600080fd5b620006a382620008d2565b818103818111156200026357634e487b7160e01b600052601160045260246000fd5b60805160a05160c05160e051610100516101205161014051610160516156f862000ca060003960008181610cfb0152818161158101528181611b8501528181612b2a0152612dae01526000612af501526000612ac8015260006133f5015260006133cd01526000613328015260006133520152600061337c01526156f86000f3fe6080604052600436106103bc5760003560e01c80637d5e81e2116101f2578063c28bc2fa1161010d578063e540d01d116100a0578063f2fde38b1161006f578063f2fde38b14610cac578063f8ce560a14610ccc578063fc0c546a14610cec578063fe0d94c114610d1f57600080fd5b8063e540d01d14610c2c578063eb9019d414610c4c578063ece40cc114610c6c578063f23a6e6114610c8c57600080fd5b8063da35c664116100dc578063da35c66414610b7d578063dd4e2ba514610b92578063ddf0b00914610bd8578063deaaa7cc14610bf857600080fd5b8063c28bc2fa14610af4578063c59057e414610b07578063d33219b414610b27578063d9c85dcb14610b4557600080fd5b8063a7713a7011610185578063ab58fb8e11610154578063ab58fb8e14610a67578063b58131b014610a9f578063bc197c8114610ab4578063c01f9e3714610ad457600080fd5b8063a7713a70146109f2578063a890c91014610a07578063a8bfbc7b14610a27578063a9a9529414610a4757600080fd5b80638ff262e3116101c15780638ff262e31461098957806391ddadf4146109a957806397c3d334146109be5780639a802a6d146109d257600080fd5b80637d5e81e2146108ed5780637ecebe001461090d57806384b0196e146109435780638da5cb5b1461096b57600080fd5b80633932abb1116102e257806356781388116102755780636f679efe116102445780636f679efe14610876578063715018a61461089857806379051887146108ad5780637b3c71d3146108cd57600080fd5b806356781388146107f65780635b8d0e0d146108165780635f398a141461083657806360c4247f1461085657600080fd5b8063452115d6116102b1578063452115d6146107425780634bf5d7e914610762578063544ffc9c1461077757806354fd4d50146107cc57600080fd5b80633932abb1146106965780633e4f49e6146106ab57806340e58ee5146106d857806343859632146106f857600080fd5b806316e9eaec1161035a5780632fe3e261116103295780632fe3e261146105f257806332b8113e14610626578063330df7ff146106565780633328bcfc1461067657600080fd5b806316e9eaec146105425780632656227d146105725780632d63f693146105855780632e82db94146105c157600080fd5b806306fdde031161039657806306fdde0314610479578063143489d01461049b578063150b7a02146104e9578063160cbed71461052257600080fd5b806301ffc9a7146103f857806302a251a31461042d57806306f3f9e61461045957600080fd5b366103f357306103ca610d32565b6001600160a01b0316146103f157604051637485328f60e11b815260040160405180910390fd5b005b600080fd5b34801561040457600080fd5b506104186104133660046144ae565b610d4b565b60405190151581526020015b60405180910390f35b34801561043957600080fd5b50600954600160301b900463ffffffff165b604051908152602001610424565b34801561046557600080fd5b506103f16104743660046144d8565b610d9d565b34801561048557600080fd5b5061048e610db1565b6040516104249190614541565b3480156104a757600080fd5b506104d16104b63660046144d8565b6000908152600560205260409020546001600160a01b031690565b6040516001600160a01b039091168152602001610424565b3480156104f557600080fd5b50610509610504366004614636565b610e43565b6040516001600160e01b03199091168152602001610424565b34801561052e57600080fd5b5061044b61053d366004614810565b610e86565b34801561054e57600080fd5b5061056261055d3660046144d8565b610f55565b6040516104249493929190614969565b61044b610580366004614810565b61115f565b34801561059157600080fd5b5061044b6105a03660046144d8565b600090815260056020526040902054600160a01b900465ffffffffffff1690565b3480156105cd57600080fd5b506105e16105dc3660046144d8565b6112ee565b6040516104249594939291906149b4565b3480156105fe57600080fd5b5061044b7f3e83946653575f9a39005e1545185629e92736b7528ab20ca3816f315424a81181565b34801561063257600080fd5b50600d5465ffffffffffff165b60405165ffffffffffff9091168152602001610424565b34801561066257600080fd5b506103f1610671366004614a1a565b61133e565b34801561068257600080fd5b506012546104d1906001600160a01b031681565b3480156106a257600080fd5b5061044b61134f565b3480156106b757600080fd5b506106cb6106c63660046144d8565b611362565b6040516104249190614a6f565b3480156106e457600080fd5b506103f16106f33660046144d8565b61136d565b34801561070457600080fd5b50610418610713366004614a7d565b6000828152600a602090815260408083206001600160a01b038516845260030190915290205460ff1692915050565b34801561074e57600080fd5b5061044b61075d366004614810565b61150e565b34801561076e57600080fd5b5061048e61157d565b34801561078357600080fd5b506107b16107923660046144d8565b6000908152600a60205260409020805460018201546002909201549092565b60408051938452602084019290925290820152606001610424565b3480156107d857600080fd5b506040805180820190915260018152603160f81b602082015261048e565b34801561080257600080fd5b5061044b610811366004614abe565b61163f565b34801561082257600080fd5b5061044b610831366004614b33565b6116fd565b34801561084257600080fd5b5061044b610851366004614bee565b61185c565b34801561086257600080fd5b5061044b6108713660046144d8565b6118b1565b34801561088257600080fd5b503360009081526013602052604090205461044b565b3480156108a457600080fd5b506103f161193f565b3480156108b957600080fd5b506103f16108c8366004614a1a565b611953565b3480156108d957600080fd5b5061044b6108e8366004614c72565b611964565b3480156108f957600080fd5b5061044b610908366004614ccc565b6119ac565b34801561091957600080fd5b5061044b610928366004614d81565b6001600160a01b031660009081526003602052604090205490565b34801561094f57600080fd5b50610958611a69565b6040516104249796959493929190614d9e565b34801561097757600080fd5b506000546001600160a01b03166104d1565b34801561099557600080fd5b5061044b6109a4366004614e0c565b611aaf565b3480156109b557600080fd5b5061063f611b81565b3480156109ca57600080fd5b50606461044b565b3480156109de57600080fd5b5061044b6109ed366004614e5e565b611c09565b3480156109fe57600080fd5b5061044b611c1e565b348015610a1357600080fd5b506103f1610a22366004614d81565b611c38565b348015610a3357600080fd5b506103f1610a42366004614a7d565b611c49565b348015610a5357600080fd5b50610418610a623660046144d8565b611ca3565b348015610a7357600080fd5b5061044b610a823660046144d8565b60009081526005602052604090206001015465ffffffffffff1690565b348015610aab57600080fd5b5061044b611cac565b348015610ac057600080fd5b50610509610acf366004614eb7565b611cb7565b348015610ae057600080fd5b5061044b610aef3660046144d8565b611cfb565b6103f1610b02366004614f4b565b611d06565b348015610b1357600080fd5b5061044b610b22366004614810565b611d86565b348015610b3357600080fd5b506010546001600160a01b03166104d1565b348015610b5157600080fd5b50610b65610b60366004614d81565b611dc0565b6040516001600160801b039091168152602001610424565b348015610b8957600080fd5b50600b5461044b565b348015610b9e57600080fd5b506040805180820190915260208082527f737570706f72743d627261766f2671756f72756d3d666f722c6162737461696e9082015261048e565b348015610be457600080fd5b506103f1610bf33660046144d8565b611f55565b348015610c0457600080fd5b5061044b7ff2aad550cf55f045cb27e9c559f9889fdfb6e6cdaa032301d6ea397784ae51d781565b348015610c3857600080fd5b506103f1610c47366004614f8f565b6120f1565b348015610c5857600080fd5b5061044b610c67366004614fb5565b612102565b348015610c7857600080fd5b506103f1610c873660046144d8565b612123565b348015610c9857600080fd5b50610509610ca7366004614fe1565b612134565b348015610cb857600080fd5b506103f1610cc7366004614d81565b612178565b348015610cd857600080fd5b5061044b610ce73660046144d8565b6121b3565b348015610cf857600080fd5b507f00000000000000000000000000000000000000000000000000000000000000006104d1565b6103f1610d2d3660046144d8565b6121be565b6000610d466010546001600160a01b031690565b905090565b60006001600160e01b031982166332a2ad4360e11b1480610d7c57506001600160e01b03198216630271189760e51b145b80610d9757506301ffc9a760e01b6001600160e01b03198316145b92915050565b610da561235a565b610dae816123d3565b50565b606060048054610dc09061504a565b80601f0160208091040260200160405190810160405280929190818152602001828054610dec9061504a565b8015610e395780601f10610e0e57610100808354040283529160200191610e39565b820191906000526020600020905b815481529060010190602001808311610e1c57829003601f168201915b5050505050905090565b600030610e4e610d32565b6001600160a01b031614610e7557604051637485328f60e11b815260040160405180910390fd5b50630a85bd0160e11b949350505050565b600080610e9586868686611d86565b9050610eaa81610ea56004612469565b61248c565b506000610eba82888888886124cb565b905065ffffffffffff811615610f3257600082815260056020908152604091829020600101805465ffffffffffff191665ffffffffffff85169081179091558251858152918201527f9a2e42fd6722813d69113e7d0079d3d940171428df7373df9c7f7617cfda2892910160405180910390a1610f4b565b604051634844252360e11b815260040160405180910390fd5b5095945050505050565b6000818152600c602090815260408083208151815460a0948102820185019093526080810183815260609586958695919485949390928492849190840182828015610fc957602002820191906000526020600020905b81546001600160a01b03168152600190910190602001808311610fab575b505050505081526020016001820180548060200260200160405190810160405280929190818152602001828054801561102157602002820191906000526020600020905b81548152602001906001019080831161100d575b5050505050815260200160028201805480602002602001604051908101604052809291908181526020016000905b828210156110fb57838290600052602060002001805461106e9061504a565b80601f016020809104026020016040519081016040528092919081815260200182805461109a9061504a565b80156110e75780601f106110bc576101008083540402835291602001916110e7565b820191906000526020600020905b8154815290600101906020018083116110ca57829003601f168201915b50505050508152602001906001019061104f565b505050508152602001600382015481525050905080606001516000801b0361113e57604051636ad0607560e01b8152600481018790526024015b60405180910390fd5b80516020820151604083015160609093015191989097509195509350915050565b60008061116e86868686611d86565b905061118e8161117e6005612469565b6111886004612469565b1761248c565b50600081815260056020526040902080547fff00ffffffffffffffffffffffffffffffffffffffffffffffffffffffffffff16600160f01b179055306111d2610d32565b6001600160a01b0316146112645760005b865181101561126257306001600160a01b031687828151811061120857611208615084565b60200260200101516001600160a01b0316036112525761125285828151811061123357611233615084565b60200260200101518051906020012060066124da90919063ffffffff16565b61125b816150b0565b90506111e3565b505b611271818787878761254b565b3061127a610d32565b6001600160a01b0316141580156112a657506006546001600160801b03808216600160801b9092041614155b156112b15760006006555b6040518181527f712ae1383f79ac853f8d882153778e0260ef8f03b504e2866e0593e04d2b291f906020015b60405180910390a195945050505050565b60006060806060600080600b878154811061130b5761130b615084565b9060005260206000200154905060008060008061132785610f55565b979e929d50909b5099509497509395505050505050565b61134661235a565b610dae8161255f565b6000610d4660095465ffffffffffff1690565b6000610d97826125c5565b6000818152600c60209081526040918290208054835181840281018401909452808452909261150992909184918301828280156113d357602002820191906000526020600020905b81546001600160a01b031681526001909101906020018083116113b5575b50505050508260010180548060200260200160405190810160405280929190818152602001828054801561142657602002820191906000526020600020905b815481526020019060010190808311611412575b505050505083600201805480602002602001604051908101604052809291908181526020016000905b828210156114fb57838290600052602060002001805461146e9061504a565b80601f016020809104026020016040519081016040528092919081815260200182805461149a9061504a565b80156114e75780601f106114bc576101008083540402835291602001916114e7565b820191906000526020600020905b8154815290600101906020018083116114ca57829003601f168201915b50505050508152602001906001019061144f565b50505050846003015461150e565b505050565b60008061151d86868686611d86565b905061152d81610ea56000612469565b506000818152600560205260409020546001600160a01b031633146115675760405163233d98e360e01b8152336004820152602401611135565b61157386868686612704565b9695505050505050565b60607f00000000000000000000000000000000000000000000000000000000000000006001600160a01b0316634bf5d7e96040518163ffffffff1660e01b8152600401600060405180830381865afa9250505080156115fe57506040513d6000823e601f3d908101601f191682016040526115fb91908101906150c9565b60015b61163a575060408051808201909152601d81527f6d6f64653d626c6f636b6e756d6265722666726f6d3d64656661756c74000000602082015290565b919050565b60008061165f733dd7780e78bc11c8ef9241d88eb43e0c7a4bd454611dc0565b6001600160801b0316116116db5760405162461bcd60e51b815260206004820152602b60248201527f72656d61696e696e672062616c616e6365206973206e6f74207375666669636960448201527f656e7420746f20766f74650000000000000000000000000000000000000000006064820152608401611135565b6116f683338460405180602001604052806000815250612712565b9392505050565b6000806117e0876117da7f3e83946653575f9a39005e1545185629e92736b7528ab20ca3816f315424a8118c8c8c6117528e6001600160a01b0316600090815260036020526040902080546001810190915590565b8d8d604051611762929190615137565b60405180910390208c805190602001206040516020016117bf9796959493929190968752602087019590955260ff9390931660408601526001600160a01b03919091166060850152608084015260a083015260c082015260e00190565b60405160208183030381529060405280519060200120612735565b85612762565b90508061180b576040516394ab6c0760e01b81526001600160a01b0388166004820152602401611135565b61184f89888a89898080601f0160208091040260200160405190810160405280939291908181526020018383808284376000920191909152508b92506127ba915050565b9998505050505050505050565b6000803390506118a687828888888080601f0160208091040260200160405190810160405280939291908181526020018383808284376000920191909152508a92506127ba915050565b979650505050505050565b600f805460009182906118c5600184615147565b815481106118d5576118d5615084565b6000918252602090912001805490915065ffffffffffff811690600160301b90046001600160d01b0316858211611918576001600160d01b031695945050505050565b61192c611924876127c9565b600f90612800565b6001600160d01b03169695505050505050565b6119476128b5565b61195160006128e2565b565b61195b61235a565b610dae81612932565b60008033905061157386828787878080601f01602080910402602001604051908101604052809392919081815260200183838082843760009201919091525061271292505050565b6000336119b98184612998565b6119e15760405163d9b3955760e01b81526001600160a01b0382166004820152602401611135565b6000611a088260016119f1611b81565b6119fb919061515a565b65ffffffffffff16612102565b90506000611a14611cac565b905080821015611a5057604051636121770b60e11b81526001600160a01b03841660048201526024810183905260448101829052606401611135565b611a5d8888888887612ab2565b98975050505050505050565b600060608060008060006060611a7d612ac1565b611a85612aee565b60408051600080825260208201909252600f60f81b9b939a50919850469750309650945092509050565b600080611b3b846117da7ff2aad550cf55f045cb27e9c559f9889fdfb6e6cdaa032301d6ea397784ae51d7898989611b048b6001600160a01b0316600090815260036020526040902080546001810190915590565b60408051602081019690965285019390935260ff90911660608401526001600160a01b0316608083015260a082015260c0016117bf565b905080611b66576040516394ab6c0760e01b81526001600160a01b0385166004820152602401611135565b61157386858760405180602001604052806000815250612712565b60007f00000000000000000000000000000000000000000000000000000000000000006001600160a01b03166391ddadf46040518163ffffffff1660e01b8152600401602060405180830381865afa925050508015611bfd575060408051601f3d908101601f19168201909252611bfa91810190615180565b60015b61163a57610d46612b1b565b6000611c16848484612b26565b949350505050565b6000611c2a600f612bbc565b6001600160d01b0316905090565b611c4061235a565b610dae81612bf5565b6001600160a01b0381166000818152601360209081526040918290208590558151858152908101929092527f286ef44358dd24973826469e21785d6a22105a4dfb32866243c938ed733f1ef1910160405180910390a15050565b60006001610d97565b6000610d4660085490565b600030611cc2610d32565b6001600160a01b031614611ce957604051637485328f60e11b815260040160405180910390fd5b5063bc197c8160e01b95945050505050565b6000610d9782612c5e565b611d0e61235a565b600080856001600160a01b0316858585604051611d2c929190615137565b60006040518083038185875af1925050503d8060008114611d69576040519150601f19603f3d011682016040523d82523d6000602084013e611d6e565b606091505b5091509150611d7d8282612c88565b50505050505050565b600084848484604051602001611d9f9493929190614969565b60408051601f19818403018152919052805160209091012095945050505050565b6001600160a01b0381811660009081526013602052604080822054601254915163d511609f60e01b8152600481018290529293909284929091169063d511609f90602401602060405180830381865afa158015611e21573d6000803e3d6000fd5b505050506040513d601f19601f82011682018060405250810190611e45919061519d565b60125460405163a80fc07160e01b8152600481018590529192506000916001600160a01b039091169063a80fc07190602401602060405180830381865afa158015611e94573d6000803e3d6000fd5b505050506040513d601f19601f82011682018060405250810190611eb8919061519d565b9050806001600160801b0316826001600160801b03161115611f425760405162461bcd60e51b815260206004820152602b60248201527f496e76616c69642073747265616d2073746174653a2077697468647261776e2060448201527f3e206465706f73697465640000000000000000000000000000000000000000006064820152608401611135565b611f4c82826151c6565b95945050505050565b6000818152600c6020908152604091829020805483518184028101840190945280845290926115099290918491830182828015611fbb57602002820191906000526020600020905b81546001600160a01b03168152600190910190602001808311611f9d575b50505050508260010180548060200260200160405190810160405280929190818152602001828054801561200e57602002820191906000526020600020905b815481526020019060010190808311611ffa575b505050505083600201805480602002602001604051908101604052809291908181526020016000905b828210156120e35783829060005260206000200180546120569061504a565b80601f01602080910402602001604051908101604052809291908181526020018280546120829061504a565b80156120cf5780601f106120a4576101008083540402835291602001916120cf565b820191906000526020600020905b8154815290600101906020018083116120b257829003601f168201915b505050505081526020019060010190612037565b505050508460030154610e86565b6120f961235a565b610dae81612ca4565b60006116f6838361211e60408051602081019091526000815290565b612b26565b61212b61235a565b610dae81612d42565b60003061213f610d32565b6001600160a01b03161461216657604051637485328f60e11b815260040160405180910390fd5b5063f23a6e6160e01b95945050505050565b6121806128b5565b6001600160a01b0381166121aa57604051631e4fbdf760e01b815260006004820152602401611135565b610dae816128e2565b6000610d9782612d83565b6000818152600c602090815260409182902080548351818402810184019094528084529092611509929091849183018282801561222457602002820191906000526020600020905b81546001600160a01b03168152600190910190602001808311612206575b50505050508260010180548060200260200160405190810160405280929190818152602001828054801561227757602002820191906000526020600020905b815481526020019060010190808311612263575b505050505083600201805480602002602001604051908101604052809291908181526020016000905b8282101561234c5783829060005260206000200180546122bf9061504a565b80601f01602080910402602001604051908101604052809291908181526020018280546122eb9061504a565b80156123385780601f1061230d57610100808354040283529160200191612338565b820191906000526020600020905b81548152906001019060200180831161231b57829003601f168201915b5050505050815260200190600101906122a0565b50505050846003015461115f565b33612363610d32565b6001600160a01b03161461238c576040516347096e4760e01b8152336004820152602401611135565b30612395610d32565b6001600160a01b03161461195157600080366040516123b5929190615137565b604051809103902090505b806123cb6006612e2d565b036123c05750565b6064808211156124005760405163243e544560e01b81526004810183905260248101829052604401611135565b600061240a611c1e565b9050612429612417611b81565b61242085612eab565b600f9190612edf565b505060408051828152602081018590527f0553476bf02ef2726e8ce5ced78d63e26e602e4a2257b1f559418e24b4633997910160405180910390a1505050565b600081600781111561247d5761247d614a37565b600160ff919091161b92915050565b60008061249884611362565b90506000836124a683612469565b16036116f6578381846040516331b75e4d60e01b8152600401611135939291906151e6565b60006115738686868686612efa565b81546001600160801b03600160801b82048116918116600183019091160361251557604051638acb5f2760e01b815260040160405180910390fd5b6001600160801b03808216600090815260018086016020526040909120939093558354919092018216600160801b029116179055565b6125588585858585613099565b5050505050565b600d546040805165ffffffffffff928316815291831660208301527f7ca4ac117ed3cdce75c1161d8207c440389b1a15d69d096831664657c07dafc2910160405180910390a1600d805465ffffffffffff191665ffffffffffff92909216919091179055565b6000806125d18361312f565b905060058160078111156125e7576125e7614a37565b146125f25792915050565b60008381526011602052604090819020546010549151632c258a9f60e11b81526004810182905290916001600160a01b03169063584b153e90602401602060405180830381865afa15801561264b573d6000803e3d6000fd5b505050506040513d601f19601f8201168201806040525081019061266f9190615208565b1561267e575060059392505050565b601054604051632ab0f52960e01b8152600481018390526001600160a01b0390911690632ab0f52990602401602060405180830381865afa1580156126c7573d6000803e3d6000fd5b505050506040513d601f19601f820116820180604052508101906126eb9190615208565b156126fa575060079392505050565b5060029392505050565b6000611f4c8585858561327c565b6000611f4c8585858561273060408051602081019091526000815290565b6127ba565b6000610d9761274261331b565b8360405161190160f01b8152600281019290925260228201526042902090565b60008060006127718585613446565b509092509050600081600381111561278b5761278b614a37565b1480156127a95750856001600160a01b0316826001600160a01b0316145b806115735750611573868686613493565b60006115738686868686613583565b600065ffffffffffff8211156127fc576040516306dfcc6560e41b81526030600482015260248101839052604401611135565b5090565b81546000908181600581111561285f57600061281b84613674565b6128259085615147565b60008881526020902090915081015465ffffffffffff908116908716101561284f5780915061285d565b61285a81600161522a565b92505b505b600061286d8787858561375c565b905080156128a85761289287612884600184615147565b600091825260209091200190565b54600160301b90046001600160d01b03166118a6565b6000979650505050505050565b6000546001600160a01b031633146119515760405163118cdaa760e01b8152336004820152602401611135565b600080546001600160a01b038381166001600160a01b0319831681178455604051919092169283917f8be0079c531659141344cd1fd0a4f28419497f9722a3daafe3b4186f6b6457e09190a35050565b6009546040805165ffffffffffff928316815291831660208301527fc565b045403dc03c2eea82b81a0465edad9e2e7fc4d97e11421c209da93d7a93910160405180910390a16009805465ffffffffffff191665ffffffffffff92909216919091179055565b805160009060348110156129b0576001915050610d97565b82810160131901516001600160a01b031981167f2370726f706f7365723d30780000000000000000000000000000000000000000146129f457600192505050610d97565b600080612a02602885615147565b90505b83811015612a9157600080612a51888481518110612a2557612a25615084565b01602001517fff00000000000000000000000000000000000000000000000000000000000000166137be565b9150915081612a695760019650505050505050610d97565b8060ff166004856001600160a01b0316901b179350505080612a8a906150b0565b9050612a05565b50856001600160a01b0316816001600160a01b031614935050505092915050565b60006115738686868686613850565b6060610d467f0000000000000000000000000000000000000000000000000000000000000000600161392b565b6060610d467f0000000000000000000000000000000000000000000000000000000000000000600261392b565b6000610d46436127c9565b60007f0000000000000000000000000000000000000000000000000000000000000000604051630748d63560e31b81526001600160a01b038681166004830152602482018690529190911690633a46b1a890604401602060405180830381865afa158015612b98573d6000803e3d6000fd5b505050506040513d601f19601f82011682018060405250810190611c16919061523d565b80546000908015612bec57612bd683612884600184615147565b54600160301b90046001600160d01b03166116f6565b60009392505050565b601054604080516001600160a01b03928316815291831660208301527f08f74ea46ef7894f65eabfb5e6e695de773a000b47c529ab559178069b226401910160405180910390a1601080546001600160a01b0319166001600160a01b0392909216919091179055565b6000610d97612c6c836139d6565b6000848152600e602052604090205465ffffffffffff16613a19565b606082612c9d57612c9882613a2f565b610d97565b5080610d97565b8063ffffffff16600003612cce5760405163f1cfbf0560e01b815260006004820152602401611135565b6009546040805163ffffffff600160301b9093048316815291831660208301527f7e3f7f0708a84de9203036abaa450dccc85ad5ff52f78c170f3edb55cf5e8828910160405180910390a16009805463ffffffff909216600160301b0269ffffffff00000000000019909216919091179055565b60085460408051918252602082018390527fccb45da8d5717e6c4544694297c4ba5cf151d455c9bb0ed4fc7a38411bc05461910160405180910390a1600855565b60006064612d90836118b1565b604051632394e7a360e21b8152600481018590526001600160a01b037f00000000000000000000000000000000000000000000000000000000000000001690638e539e8c90602401602060405180830381865afa158015612df5573d6000803e3d6000fd5b505050506040513d601f19601f82011682018060405250810190612e19919061523d565b612e239190615256565b610d979190615283565b80546000906001600160801b0380821691600160801b9004168103612e65576040516375e52f4f60e01b815260040160405180910390fd5b6001600160801b038181166000908152600185810160205260408220805492905585546fffffffffffffffffffffffffffffffff19169301909116919091179092555090565b60006001600160d01b038211156127fc576040516306dfcc6560e41b815260d0600482015260248101839052604401611135565b600080612eed858585613a58565b915091505b935093915050565b600080601060009054906101000a90046001600160a01b03166001600160a01b031663f27a0c926040518163ffffffff1660e01b8152600401602060405180830381865afa158015612f50573d6000803e3d6000fd5b505050506040513d601f19601f82011682018060405250810190612f74919061523d565b905060003060601b6bffffffffffffffffffffffff1916841860105460405163b1c5f42760e01b81529192506001600160a01b03169063b1c5f42790612fc7908a908a908a9060009088906004016152a5565b602060405180830381865afa158015612fe4573d6000803e3d6000fd5b505050506040513d601f19601f82011682018060405250810190613008919061523d565b6000898152601160205260408082209290925560105491516308f2a0bb60e41b81526001600160a01b0390921691638f2a0bb091613053918b918b918b919088908a906004016152f3565b600060405180830381600087803b15801561306d57600080fd5b505af1158015613081573d6000803e3d6000fd5b50505050611a5d8242613094919061522a565b6127c9565b6010546001600160a01b031663e38335e53486868660003060601b6bffffffffffffffffffffffff191688186040518763ffffffff1660e01b81526004016130e59594939291906152a5565b6000604051808303818588803b1580156130fe57600080fd5b505af1158015613112573d6000803e3d6000fd5b505050600096875250506011602052505060408320929092555050565b6000818152600560205260408120805460ff600160f01b8204811691600160f81b900416811561316457506007949350505050565b801561317557506002949350505050565b600085815260056020526040812054600160a01b900465ffffffffffff169050806000036131b957604051636ad0607560e01b815260048101879052602401611135565b60006131c3611b81565b65ffffffffffff1690508082106131e1575060009695505050505050565b60006131ec88611cfb565b905081811061320357506001979650505050505050565b61320c88613bd2565b158061322c57506000888152600a60205260409020805460019091015411155b1561323f57506003979650505050505050565b60008881526005602052604090206001015465ffffffffffff1660000361326e57506004979650505050505050565b506005979650505050505050565b60008061328b86868686613c24565b6000818152601160205260409020549091508015610f4b5760105460405163c4d252f560e01b8152600481018390526001600160a01b039091169063c4d252f590602401600060405180830381600087803b1580156132e957600080fd5b505af11580156132fd573d6000803e3d6000fd5b50505060008381526011602052604081205550509050949350505050565b6000306001600160a01b037f00000000000000000000000000000000000000000000000000000000000000001614801561337457507f000000000000000000000000000000000000000000000000000000000000000046145b1561339e57507f000000000000000000000000000000000000000000000000000000000000000090565b610d46604080517f8b73c3c69bb8fe3d512ecc4cf759cc79239f7b179b0ffacaa9a75d522b39400f60208201527f0000000000000000000000000000000000000000000000000000000000000000918101919091527f000000000000000000000000000000000000000000000000000000000000000060608201524660808201523060a082015260009060c00160405160208183030381529060405280519060200120905090565b600080600083516041036134805760208401516040850151606086015160001a61347288828585613ced565b95509550955050505061348c565b50508151600091506002905b9250925092565b6000806000856001600160a01b031685856040516024016134b592919061534b565b60408051601f198184030181529181526020820180517bffffffffffffffffffffffffffffffffffffffffffffffffffffffff16630b135d3f60e11b179052516134ff9190615364565b600060405180830381855afa9150503d806000811461353a576040519150601f19603f3d011682016040523d82523d6000602084013e61353f565b606091505b509150915081801561355357506020815110155b801561157357508051630b135d3f60e11b90613578908301602090810190840161523d565b149695505050505050565b6000806135938787878787613dbc565b6000888152600e602052604090205490915065ffffffffffff161580156135be57506135be87613bd2565b156115735760006135d6600d5465ffffffffffff1690565b6135de611b81565b6135e89190615380565b90506135f388611cfb565b8165ffffffffffff1611156136405760405165ffffffffffff8216815288907f541f725fb9f7c98a30cc9c0ff32fbb14358cd7159c847a3aa20a2bdc442ba5119060200160405180910390a25b6000888152600e60205260409020805465ffffffffffff191665ffffffffffff929092169190911790559695505050505050565b60008160000361368657506000919050565b6000600161369384613eae565b901c6001901b905060018184816136ac576136ac61526d565b048201901c905060018184816136c4576136c461526d565b048201901c905060018184816136dc576136dc61526d565b048201901c905060018184816136f4576136f461526d565b048201901c9050600181848161370c5761370c61526d565b048201901c905060018184816137245761372461526d565b048201901c9050600181848161373c5761373c61526d565b048201901c90506116f6818285816137565761375661526d565b04613f42565b60005b818310156137b65760006137738484613f51565b60008781526020902090915065ffffffffffff86169082015465ffffffffffff1611156137a2578092506137b0565b6137ad81600161522a565b93505b5061375f565b509392505050565b60008060f883901c602f811180156137d95750603a8160ff16105b156137ee57600194602f199091019350915050565b8060ff166040108015613804575060478160ff16105b15613819576001946036199091019350915050565b8060ff16606010801561382f575060678160ff16105b15613844576001946056199091019350915050565b50600093849350915050565b6000806138608787878787613f6c565b600b805460018101825560009182527f0175b7a638427703f0dbe7bb9bbf987a2551717b34e79f33b5b1008d1fa01db901829055604080516080810182528a815260208181018b90528183018a90528851898201206060830152848452600c81529190922082518051949550929390926138de928492910190614354565b5060208281015180516138f792600185019201906143b5565b50604082015180516139139160028401916020909101906143f0565b50606091909101516003909101559695505050505050565b606060ff83146139455761393e836141bb565b9050610d97565b8180546139519061504a565b80601f016020809104026020016040519081016040528092919081815260200182805461397d9061504a565b80156139ca5780601f1061399f576101008083540402835291602001916139ca565b820191906000526020600020905b8154815290600101906020018083116139ad57829003601f168201915b50505050509050610d97565b600081815260056020526040812054613a0b90600160d01b810463ffffffff1690600160a01b900465ffffffffffff16615380565b65ffffffffffff1692915050565b6000818311613a2857816116f6565b5090919050565b805115613a3f5780518082602001fd5b604051630a12f52160e11b815260040160405180910390fd5b825460009081908015613b77576000613a7687612884600185615147565b60408051808201909152905465ffffffffffff808216808452600160301b9092046001600160d01b031660208401529192509087161015613aca57604051632520601d60e01b815260040160405180910390fd5b805165ffffffffffff808816911603613b165784613aed88612884600186615147565b80546001600160d01b0392909216600160301b0265ffffffffffff909216919091179055613b67565b6040805180820190915265ffffffffffff80881682526001600160d01b0380881660208085019182528b54600181018d5560008d81529190912094519151909216600160301b029216919091179101555b602001519250839150612ef29050565b50506040805180820190915265ffffffffffff80851682526001600160d01b0380851660208085019182528854600181018a5560008a815291822095519251909316600160301b029190931617920191909155905081612ef2565b6000818152600a6020526040812060028101546001820154613bf4919061522a565b600084815260056020526040902054613c1b90600160a01b900465ffffffffffff166121b3565b11159392505050565b600080613c3386868686611d86565b9050613c8181613c436007612469565b613c4d6006612469565b613c576002612469565b6001613c6460078261539f565b613c6f90600261549c565b613c799190615147565b18181861248c565b506000818152600560205260409081902080547effffffffffffffffffffffffffffffffffffffffffffffffffffffffffffff16600160f81b179055517f789cf55be980739dad1d0699b93b58e806b51c9d96619bfa8fe0a28abaa7b30c906112dd9083815260200190565b600080807f7fffffffffffffffffffffffffffffff5d576e7357a4501ddfe92f46681b20a0841115613d285750600091506003905082613db2565b604080516000808252602082018084528a905260ff891692820192909252606081018790526080810186905260019060a0016020604051602081039080840390855afa158015613d7c573d6000803e3d6000fd5b5050604051601f1901519150506001600160a01b038116613da857506000925060019150829050613db2565b9250600091508190505b9450945094915050565b6000613dcc86610ea56001612469565b50600086815260056020526040812054613df7908790600160a01b900465ffffffffffff1685612b26565b9050613e0687878784876141fa565b8251600003613e5b57856001600160a01b03167fb8e138887d0aa13bab447e82de9d5c1777041ecd21ca36ba824ff1e6c07ddda488878488604051613e4e94939291906154ab565b60405180910390a2611573565b856001600160a01b03167fe2babfbac5889a709b63bb7f598b324e08bc5a4fb9ec647fb3cbc9ec07eb87128887848888604051613e9c9594939291906154d3565b60405180910390a29695505050505050565b600080608083901c15613ec357608092831c92015b604083901c15613ed557604092831c92015b602083901c15613ee757602092831c92015b601083901c15613ef957601092831c92015b600883901c15613f0b57600892831c92015b600483901c15613f1d57600492831c92015b600283901c15613f2f57600292831c92015b600183901c15610d975760010192915050565b6000818310613a2857816116f6565b6000613f606002848418615283565b6116f69084841661522a565b6000613f818686868680519060200120611d86565b905084518651141580613f9657508351865114155b80613fa057508551155b15613fd557855184518651604051630447b05d60e41b8152600481019390935260248301919091526044820152606401611135565b600081815260056020526040902054600160a01b900465ffffffffffff1615614020578061400282611362565b6040516331b75e4d60e01b81526111359291906000906004016151e6565b600061402a61134f565b614032611b81565b65ffffffffffff16614044919061522a565b9050600061405f60095463ffffffff600160301b9091041690565b600084815260056020526040902080546001600160a01b0319166001600160a01b038716178155909150614092836127c9565b815465ffffffffffff91909116600160a01b027fffffffffffff000000000000ffffffffffffffffffffffffffffffffffffffff9091161781556140d5826142fb565b815463ffffffff91909116600160d01b027fffff00000000ffffffffffffffffffffffffffffffffffffffffffffffffffff90911617815588517f7d84a6263ae0d98d3329bd7b46bb4e8d6f98cd35a7adb45c274c8b7fd5ebd5e090859087908c908c9067ffffffffffffffff81111561415157614151614569565b60405190808252806020026020018201604052801561418457816020015b606081526020019060019003908161416f5790505b508c896141918a8261522a565b8e6040516141a79998979695949392919061550d565b60405180910390a150505095945050505050565b606060006141c88361432c565b604080516020808252818301909252919250600091906020820181803683375050509182525060208101929092525090565b6000858152600a602090815260408083206001600160a01b0388168452600381019092529091205460ff161561424e576040516371c6af4960e01b81526001600160a01b0386166004820152602401611135565b6001600160a01b03851660009081526003820160205260409020805460ff1916600117905560ff841661429a578281600001600082825461428f919061522a565b909155506142f39050565b60001960ff8516016142ba578281600101600082825461428f919061522a565b60011960ff8516016142da578281600201600082825461428f919061522a565b6040516303599be160e11b815260040160405180910390fd5b505050505050565b600063ffffffff8211156127fc576040516306dfcc6560e41b81526020600482015260248101839052604401611135565b600060ff8216601f811115610d9757604051632cd44ac360e21b815260040160405180910390fd5b8280548282559060005260206000209081019282156143a9579160200282015b828111156143a957825182546001600160a01b0319166001600160a01b03909116178255602090920191600190910190614374565b506127fc929150614442565b8280548282559060005260206000209081019282156143a9579160200282015b828111156143a95782518255916020019190600101906143d5565b828054828255906000526020600020908101928215614436579160200282015b828111156144365782518290614426908261562b565b5091602001919060010190614410565b506127fc929150614457565b5b808211156127fc5760008155600101614443565b808211156127fc57600061446b8282614474565b50600101614457565b5080546144809061504a565b6000825580601f10614490575050565b601f016020900490600052602060002090810190610dae9190614442565b6000602082840312156144c057600080fd5b81356001600160e01b0319811681146116f657600080fd5b6000602082840312156144ea57600080fd5b5035919050565b60005b8381101561450c5781810151838201526020016144f4565b50506000910152565b6000815180845261452d8160208601602086016144f1565b601f01601f19169290920160200192915050565b6020815260006116f66020830184614515565b6001600160a01b0381168114610dae57600080fd5b634e487b7160e01b600052604160045260246000fd5b604051601f8201601f1916810167ffffffffffffffff811182821017156145a8576145a8614569565b604052919050565b600067ffffffffffffffff8211156145ca576145ca614569565b50601f01601f191660200190565b60006145eb6145e6846145b0565b61457f565b90508281528383830111156145ff57600080fd5b828260208301376000602084830101529392505050565b600082601f83011261462757600080fd5b6116f6838335602085016145d8565b6000806000806080858703121561464c57600080fd5b843561465781614554565b9350602085013561466781614554565b925060408501359150606085013567ffffffffffffffff81111561468a57600080fd5b61469687828801614616565b91505092959194509250565b600067ffffffffffffffff8211156146bc576146bc614569565b5060051b60200190565b600082601f8301126146d757600080fd5b813560206146e76145e6836146a2565b82815260059290921b8401810191818101908684111561470657600080fd5b8286015b8481101561472a57803561471d81614554565b835291830191830161470a565b509695505050505050565b600082601f83011261474657600080fd5b813560206147566145e6836146a2565b82815260059290921b8401810191818101908684111561477557600080fd5b8286015b8481101561472a5780358352918301918301614779565b600082601f8301126147a157600080fd5b813560206147b16145e6836146a2565b82815260059290921b840181019181810190868411156147d057600080fd5b8286015b8481101561472a57803567ffffffffffffffff8111156147f45760008081fd5b6148028986838b0101614616565b8452509183019183016147d4565b6000806000806080858703121561482657600080fd5b843567ffffffffffffffff8082111561483e57600080fd5b61484a888389016146c6565b9550602087013591508082111561486057600080fd5b61486c88838901614735565b9450604087013591508082111561488257600080fd5b5061488f87828801614790565b949793965093946060013593505050565b600081518084526020808501945080840160005b838110156148d95781516001600160a01b0316875295820195908201906001016148b4565b509495945050505050565b600081518084526020808501945080840160005b838110156148d9578151875295820195908201906001016148f8565b600081518084526020808501808196508360051b8101915082860160005b8581101561495c57828403895261494a848351614515565b98850198935090840190600101614932565b5091979650505050505050565b60808152600061497c60808301876148a0565b828103602084015261498e81876148e4565b905082810360408401526149a28186614914565b91505082606083015295945050505050565b85815260a0602082015260006149cd60a08301876148a0565b82810360408401526149df81876148e4565b905082810360608401526149f38186614914565b9150508260808301529695505050505050565b65ffffffffffff81168114610dae57600080fd5b600060208284031215614a2c57600080fd5b81356116f681614a06565b634e487b7160e01b600052602160045260246000fd5b60088110614a6b57634e487b7160e01b600052602160045260246000fd5b9052565b60208101610d978284614a4d565b60008060408385031215614a9057600080fd5b823591506020830135614aa281614554565b809150509250929050565b803560ff8116811461163a57600080fd5b60008060408385031215614ad157600080fd5b82359150614ae160208401614aad565b90509250929050565b60008083601f840112614afc57600080fd5b50813567ffffffffffffffff811115614b1457600080fd5b602083019150836020828501011115614b2c57600080fd5b9250929050565b600080600080600080600060c0888a031215614b4e57600080fd5b87359650614b5e60208901614aad565b95506040880135614b6e81614554565b9450606088013567ffffffffffffffff80821115614b8b57600080fd5b614b978b838c01614aea565b909650945060808a0135915080821115614bb057600080fd5b614bbc8b838c01614616565b935060a08a0135915080821115614bd257600080fd5b50614bdf8a828b01614616565b91505092959891949750929550565b600080600080600060808688031215614c0657600080fd5b85359450614c1660208701614aad565b9350604086013567ffffffffffffffff80821115614c3357600080fd5b614c3f89838a01614aea565b90955093506060880135915080821115614c5857600080fd5b50614c6588828901614616565b9150509295509295909350565b60008060008060608587031215614c8857600080fd5b84359350614c9860208601614aad565b9250604085013567ffffffffffffffff811115614cb457600080fd5b614cc087828801614aea565b95989497509550505050565b60008060008060808587031215614ce257600080fd5b843567ffffffffffffffff80821115614cfa57600080fd5b614d06888389016146c6565b95506020870135915080821115614d1c57600080fd5b614d2888838901614735565b94506040870135915080821115614d3e57600080fd5b614d4a88838901614790565b93506060870135915080821115614d6057600080fd5b508501601f81018713614d7257600080fd5b614696878235602084016145d8565b600060208284031215614d9357600080fd5b81356116f681614554565b60ff60f81b8816815260e060208201526000614dbd60e0830189614515565b8281036040840152614dcf8189614515565b90508660608401526001600160a01b03861660808401528460a084015282810360c0840152614dfe81856148e4565b9a9950505050505050505050565b60008060008060808587031215614e2257600080fd5b84359350614e3260208601614aad565b92506040850135614e4281614554565b9150606085013567ffffffffffffffff81111561468a57600080fd5b600080600060608486031215614e7357600080fd5b8335614e7e81614554565b925060208401359150604084013567ffffffffffffffff811115614ea157600080fd5b614ead86828701614616565b9150509250925092565b600080600080600060a08688031215614ecf57600080fd5b8535614eda81614554565b94506020860135614eea81614554565b9350604086013567ffffffffffffffff80821115614f0757600080fd5b614f1389838a01614735565b94506060880135915080821115614f2957600080fd5b614f3589838a01614735565b93506080880135915080821115614c5857600080fd5b60008060008060608587031215614f6157600080fd5b8435614f6c81614554565b935060208501359250604085013567ffffffffffffffff811115614cb457600080fd5b600060208284031215614fa157600080fd5b813563ffffffff811681146116f657600080fd5b60008060408385031215614fc857600080fd5b8235614fd381614554565b946020939093013593505050565b600080600080600060a08688031215614ff957600080fd5b853561500481614554565b9450602086013561501481614554565b93506040860135925060608601359150608086013567ffffffffffffffff81111561503e57600080fd5b614c6588828901614616565b600181811c9082168061505e57607f821691505b60208210810361507e57634e487b7160e01b600052602260045260246000fd5b50919050565b634e487b7160e01b600052603260045260246000fd5b634e487b7160e01b600052601160045260246000fd5b6000600182016150c2576150c261509a565b5060010190565b6000602082840312156150db57600080fd5b815167ffffffffffffffff8111156150f257600080fd5b8201601f8101841361510357600080fd5b80516151116145e6826145b0565b81815285602083850101111561512657600080fd5b611f4c8260208301602086016144f1565b8183823760009101908152919050565b81810381811115610d9757610d9761509a565b65ffffffffffff8281168282160390808211156151795761517961509a565b5092915050565b60006020828403121561519257600080fd5b81516116f681614a06565b6000602082840312156151af57600080fd5b81516001600160801b03811681146116f657600080fd5b6001600160801b038281168282160390808211156151795761517961509a565b838152606081016151fa6020830185614a4d565b826040830152949350505050565b60006020828403121561521a57600080fd5b815180151581146116f657600080fd5b80820180821115610d9757610d9761509a565b60006020828403121561524f57600080fd5b5051919050565b8082028115828204841417610d9757610d9761509a565b634e487b7160e01b600052601260045260246000fd5b6000826152a057634e487b7160e01b600052601260045260246000fd5b500490565b60a0815260006152b860a08301886148a0565b82810360208401526152ca81886148e4565b905082810360408401526152de8187614914565b60608401959095525050608001529392505050565b60c08152600061530660c08301896148a0565b828103602084015261531881896148e4565b9050828103604084015261532c8188614914565b60608401969096525050608081019290925260a0909101529392505050565b828152604060208201526000611c166040830184614515565b600082516153768184602087016144f1565b9190910192915050565b65ffffffffffff8181168382160190808211156151795761517961509a565b60ff8181168382160190811115610d9757610d9761509a565b600181815b808511156153f35781600019048211156153d9576153d961509a565b808516156153e657918102915b93841c93908002906153bd565b509250929050565b60008261540a57506001610d97565b8161541757506000610d97565b816001811461542d576002811461543757615453565b6001915050610d97565b60ff8411156154485761544861509a565b50506001821b610d97565b5060208310610133831016604e8410600b8410161715615476575081810a610d97565b61548083836153b8565b80600019048211156154945761549461509a565b029392505050565b60006116f660ff8416836153fb565b84815260ff841660208201528260408201526080606082015260006115736080830184614515565b85815260ff8516602082015283604082015260a0606082015260006154fb60a0830185614515565b8281036080840152611a5d8185614515565b60006101208b835260206001600160a01b038c16818501528160408501526155378285018c6148a0565b9150838203606085015261554b828b6148e4565b915083820360808501528189518084528284019150828160051b850101838c0160005b8381101561559c57601f1987840301855261558a838351614515565b9486019492509085019060010161556e565b505086810360a08801526155b0818c614914565b9450505050508560c08401528460e08401528281036101008401526155d58185614515565b9c9b505050505050505050505050565b601f82111561150957600081815260208120601f850160051c8101602086101561560c5750805b601f850160051c820191505b818110156142f357828155600101615618565b815167ffffffffffffffff81111561564557615645614569565b61565981615653845461504a565b846155e5565b602080601f83116001811461568e57600084156156765750858301515b600019600386901b1c1916600185901b1785556142f3565b600085815260208120601f198616915b828110156156bd5788860151825594840194600190910190840161569e565b50858210156156db5787850151600019600388901b60f8161c191681555b5050505050600190811b0190555056fea164736f6c6343000814000a",
  "devdoc": {
    "details": "OZGovernor is a smart contract that extends OpenZeppelin's Governor with additional features for voting, timelock, and quorum.",
    "errors": {
      "CheckpointUnorderedInsertion()": [
        {
          "details": "A value was attempted to be inserted on a past checkpoint."
        }
      ],
      "FailedInnerCall()": [
        {
          "details": "A call to an address target failed. The target may have reverted."
        }
      ],
      "GovernorAlreadyCastVote(address)": [
        {
          "details": "The vote was already cast."
        }
      ],
      "GovernorAlreadyQueuedProposal(uint256)": [
        {
          "details": "The proposal has already been queued."
        }
      ],
      "GovernorDisabledDeposit()": [
        {
          "details": "Token deposits are disabled in this contract."
        }
      ],
      "GovernorInsufficientProposerVotes(address,uint256,uint256)": [
        {
          "details": "The `proposer` does not have the required votes to create a proposal."
        }
      ],
      "GovernorInvalidProposalLength(uint256,uint256,uint256)": [
        {
          "details": "Empty proposal or a mismatch between the parameters length for a proposal call."
        }
      ],
      "GovernorInvalidQuorumFraction(uint256,uint256)": [
        {
          "details": "The quorum set is not a valid fraction."
        }
      ],
      "GovernorInvalidSignature(address)": [
        {
          "details": "The provided signature is not valid for the expected `voter`. If the `voter` is a contract, the signature is not valid using {IERC1271-isValidSignature}."
        }
      ],
      "GovernorInvalidVoteType()": [
        {
          "details": "The vote type used is not valid for the corresponding counting module."
        }
      ],
      "GovernorInvalidVotingPeriod(uint256)": [
        {
          "details": "The voting period set is not a valid period."
        }
      ],
      "GovernorNonexistentProposal(uint256)": [
        {
          "details": "The `proposalId` doesn't exist."
        }
      ],
      "GovernorNotQueuedProposal(uint256)": [
        {
          "details": "The proposal hasn't been queued yet."
        }
      ],
      "GovernorOnlyExecutor(address)": [
        {
          "details": "The `account` is not the governance executor."
        }
      ],
      "GovernorOnlyProposer(address)": [
        {
          "details": "The `account` is not a proposer."
        }
      ],
      "GovernorQueueNotImplemented()": [
        {
          "details": "Queue operation is not implemented for this governor. Execute should be called directly."
        }
      ],
      "GovernorRestrictedProposer(address)": [
        {
          "details": "The `proposer` is not allowed to create a proposal."
        }
      ],
      "GovernorUnexpectedProposalState(uint256,uint8,bytes32)": [
        {
          "details": "The current state of a proposal is not the required for performing an operation. The `expectedStates` is a bitmap with the bits enabled for each ProposalState enum position counting from right to left. NOTE: If `expectedState` is `bytes32(0)`, the proposal is expected to not be in any state (i.e. not exist). This is the case when a proposal that is expected to be unset is already initiated (the proposal is duplicated). See {Governor-_encodeStateBitmap}."
        }
      ],
      "InvalidAccountNonce(address,uint256)": [
        {
          "details": "The nonce used for an `account` is not the expected current nonce."
        }
      ],
      "OwnableInvalidOwner(address)": [
        {
          "details": "The owner is not a valid owner account. (eg. `address(0)`)"
        }
      ],
      "OwnableUnauthorizedAccount(address)": [
        {
          "details": "The caller account is not authorized to perform an operation."
        }
      ],
      "QueueEmpty()": [
        {
          "details": "An operation (e.g. {front}) couldn't be completed due to the queue being empty."
        }
      ],
      "QueueFull()": [
        {
          "details": "A push operation couldn't be completed due to the queue being full."
        }
      ],
      "SafeCastOverflowedUintDowncast(uint8,uint256)": [
        {
          "details": "Value doesn't fit in an uint of `bits` size."
        }
      ]
    },
    "events": {
      "EIP712DomainChanged()": {
        "details": "MAY be emitted to signal that the domain could have changed."
      },
      "LateQuorumVoteExtensionSet(uint64,uint64)": {
        "details": "Emitted when the {lateQuorumVoteExtension} parameter is changed."
      },
      "ProposalCanceled(uint256)": {
        "details": "Emitted when a proposal is canceled."
      },
      "ProposalCreated(uint256,address,address[],uint256[],string[],bytes[],uint256,uint256,string)": {
        "details": "Emitted when a proposal is created."
      },
      "ProposalExecuted(uint256)": {
        "details": "Emitted when a proposal is executed."
      },
      "ProposalExtended(uint256,uint64)": {
        "details": "Emitted when a proposal deadline is pushed back due to reaching quorum late in its voting period."
      },
      "ProposalQueued(uint256,uint256)": {
        "details": "Emitted when a proposal is queued."
      },
      "TimelockChange(address,address)": {
        "details": "Emitted when the timelock controller used for proposal execution is modified."
      },
      "VoteCast(address,uint256,uint8,uint256,string)": {
        "details": "Emitted when a vote is cast without params. Note: `support` values should be seen as buckets. Their interpretation depends on the voting module used."
      },
      "VoteCastWithParams(address,uint256,uint8,uint256,string,bytes)": {
        "details": "Emitted when a vote is cast with params. Note: `support` values should be seen as buckets. Their interpretation depends on the voting module used. `params` are additional encoded parameters. Their interpepretation also depends on the voting module used."
      }
    },
    "kind": "dev",
    "methods": {
      "CLOCK_MODE()": {
        "details": "Machine-readable description of the clock as specified in EIP-6372."
      },
      "COUNTING_MODE()": {
        "details": "See {IGovernor-COUNTING_MODE}."
      },
      "cancel(address[],uint256[],bytes[],bytes32)": {
        "details": "See {IGovernor-cancel}."
      },
      "cancel(uint256)": {
        "details": "ProposalId version of {IGovernor-cancel}."
      },
      "castVote(uint256,uint8)": {
        "details": "See {IGovernor-castVote}."
      },
      "castVoteBySig(uint256,uint8,address,bytes)": {
        "details": "See {IGovernor-castVoteBySig}."
      },
      "castVoteWithReason(uint256,uint8,string)": {
        "details": "See {IGovernor-castVoteWithReason}."
      },
      "castVoteWithReasonAndParams(uint256,uint8,string,bytes)": {
        "details": "See {IGovernor-castVoteWithReasonAndParams}."
      },
      "castVoteWithReasonAndParamsBySig(uint256,uint8,address,string,bytes,bytes)": {
        "details": "See {IGovernor-castVoteWithReasonAndParamsBySig}."
      },
      "clock()": {
        "details": "Clock (as specified in EIP-6372) is set to match the token's clock. Fallback to block numbers if the token does not implement EIP-6372."
      },
      "constructor": {
        "details": "Initializes the OZGovernor contract.",
        "params": {
          "_initialProposalThreshold": ", 0, proposal threshold",
          "_initialVoteExtension": ",",
          "_initialVotingDelay": ", 7200, 1 day",
          "_initialVotingPeriod": ", 50400, 1 week ",
          "_name": "The name of the governor.",
          "_quorumNumeratorValue": ", 4, numerator value for quorum",
          "_timelock": "The timelock controller.",
          "_token": "The voting token."
        }
      },
      "eip712Domain()": {
        "details": "See {IERC-5267}."
      },
      "execute(address[],uint256[],bytes[],bytes32)": {
        "details": "See {IGovernor-execute}."
      },
      "execute(uint256)": {
        "details": "Version of {IGovernor-execute} with only `proposalId` as an argument."
      },
      "getVotes(address,uint256)": {
        "details": "See {IGovernor-getVotes}."
      },
      "getVotesWithParams(address,uint256,bytes)": {
        "details": "See {IGovernor-getVotesWithParams}."
      },
      "hasVoted(uint256,address)": {
        "details": "See {IGovernor-hasVoted}."
      },
      "hashProposal(address[],uint256[],bytes[],bytes32)": {
        "details": "See {IGovernor-hashProposal}. The proposal id is produced by hashing the ABI encoded `targets` array, the `values` array, the `calldatas` array and the descriptionHash (bytes32 which itself is the keccak256 hash of the description string). This proposal id can be produced from the proposal data which is part of the {ProposalCreated} event. It can even be computed in advance, before the proposal is submitted. Note that the chainId and the governor address are not part of the proposal id computation. Consequently, the same proposal (with same operation and same description) will have the same id if submitted on multiple governors across multiple networks. This also means that in order to execute the same operation twice (on the same governor) the proposer will have to change the description in order to avoid proposal id conflicts."
      },
      "lateQuorumVoteExtension()": {
        "details": "Returns the current value of the vote extension parameter: the number of blocks that are required to pass from the time a proposal reaches quorum until its voting period ends."
      },
      "name()": {
        "details": "See {IGovernor-name}."
      },
      "nonces(address)": {
        "details": "Returns the next unused nonce for an address."
      },
      "onERC1155BatchReceived(address,address,uint256[],uint256[],bytes)": {
        "details": "See {IERC1155Receiver-onERC1155BatchReceived}. Receiving tokens is disabled if the governance executor is other than the governor itself (eg. when using with a timelock)."
      },
      "onERC1155Received(address,address,uint256,uint256,bytes)": {
        "details": "See {IERC1155Receiver-onERC1155Received}. Receiving tokens is disabled if the governance executor is other than the governor itself (eg. when using with a timelock)."
      },
      "onERC721Received(address,address,uint256,bytes)": {
        "details": "See {IERC721Receiver-onERC721Received}. Receiving tokens is disabled if the governance executor is other than the governor itself (eg. when using with a timelock)."
      },
      "owner()": {
        "details": "Returns the address of the current owner."
      },
      "proposalCount()": {
        "details": "Returns the number of stored proposals."
      },
      "proposalDeadline(uint256)": {
        "params": {
          "proposalId": "The ID of the proposal to query."
        },
        "returns": {
          "_0": "The deadline for submitting proposals."
        }
      },
      "proposalDetails(uint256)": {
        "details": "Returns the details of a proposalId. Reverts if `proposalId` is not a known proposal."
      },
      "proposalDetailsAt(uint256)": {
        "details": "Returns the details (including the proposalId) of a proposal given its sequential index."
      },
      "proposalEta(uint256)": {
        "details": "See {IGovernor-proposalEta}."
      },
      "proposalNeedsQueuing(uint256)": {
        "params": {
          "proposalId": "The ID of the proposal to check."
        },
        "returns": {
          "_0": "A boolean indicating whether the proposal needs to be queued."
        }
      },
      "proposalProposer(uint256)": {
        "details": "See {IGovernor-proposalProposer}."
      },
      "proposalSnapshot(uint256)": {
        "details": "See {IGovernor-proposalSnapshot}."
      },
      "proposalThreshold()": {
        "returns": {
          "_0": "The threshold required for a proposal to be enacted."
        }
      },
      "proposalVotes(uint256)": {
        "details": "Accessor to the internal vote counts."
      },
      "propose(address[],uint256[],bytes[],string)": {
        "details": "See {IGovernor-propose}. This function has opt-in frontrunning protection, described in {_isValidDescriptionForProposer}."
      },
      "queue(address[],uint256[],bytes[],bytes32)": {
        "details": "See {IGovernor-queue}."
      },
      "queue(uint256)": {
        "details": "Version of {IGovernorTimelock-queue} with only `proposalId` as an argument."
      },
      "quorum(uint256)": {
        "params": {
          "blockNumber": "The block number for which to determine the quorum."
        },
        "returns": {
          "_0": "The required quorum at the given block number."
        }
      },
      "quorumDenominator()": {
        "details": "Returns the quorum denominator. Defaults to 100, but may be overridden."
      },
      "quorumNumerator()": {
        "details": "Returns the current quorum numerator. See {quorumDenominator}."
      },
      "quorumNumerator(uint256)": {
        "details": "Returns the quorum numerator at a specific timepoint. See {quorumDenominator}."
      },
      "relay(address,uint256,bytes)": {
        "details": "Relays a transaction or function call to an arbitrary target. In cases where the governance executor is some contract other than the governor itself, like when using a timelock, this function can be invoked in a governance proposal to recover tokens or Ether that was sent to the governor contract by mistake. Note that if the executor is simply the governor itself, use of `relay` is redundant."
      },
      "renounceOwnership()": {
        "details": "Leaves the contract without owner. It will not be possible to call `onlyOwner` functions. Can only be called by the current owner. NOTE: Renouncing ownership will leave the contract without an owner, thereby disabling any functionality that is only available to the owner."
      },
      "setLateQuorumVoteExtension(uint48)": {
        "details": "Changes the {lateQuorumVoteExtension}. This operation can only be performed by the governance executor, generally through a governance proposal. Emits a {LateQuorumVoteExtensionSet} event."
      },
      "setProposalThreshold(uint256)": {
        "details": "Update the proposal threshold. This operation can only be performed through a governance proposal. Emits a {ProposalThresholdSet} event."
      },
      "setVotingDelay(uint48)": {
        "details": "Update the voting delay. This operation can only be performed through a governance proposal. Emits a {VotingDelaySet} event."
      },
      "setVotingPeriod(uint32)": {
        "details": "Update the voting period. This operation can only be performed through a governance proposal. Emits a {VotingPeriodSet} event."
      },
      "state(uint256)": {
        "params": {
          "proposalId": "The ID of the proposal to query."
        },
        "returns": {
          "_0": "The current state of the proposal (e.g., Pending, Active, Canceled, Defeated, Succeeded, Queued, Executed)."
        }
      },
      "supportsInterface(bytes4)": {
        "details": "See {IERC165-supportsInterface}."
      },
      "timelock()": {
        "details": "Public accessor to check the address of the timelock"
      },
      "token()": {
        "details": "The token that voting power is sourced from."
      },
      "transferOwnership(address)": {
        "details": "Transfers ownership of the contract to a new account (`newOwner`). Can only be called by the current owner."
      },
      "updateQuorumNumerator(uint256)": {
        "details": "Changes the quorum numerator. Emits a {QuorumNumeratorUpdated} event. Requirements: - Must be called through a governance proposal. - New numerator must be smaller or equal to the denominator."
      },
      "updateTimelock(address)": {
        "details": "Public endpoint to update the underlying timelock instance. Restricted to the timelock itself, so updates must be proposed, scheduled, and executed through governance proposals. CAUTION: It is not recommended to change the timelock while there are other queued governance proposals."
      },
      "version()": {
        "details": "See {IGovernor-version}."
      },
      "votingDelay()": {
        "returns": {
          "_0": "The configured voting delay."
        }
      },
      "votingPeriod()": {
        "returns": {
          "_0": "The configured voting period."
        }
      }
    },
    "title": "OZGovernor",
    "version": 1
  },
  "userdoc": {
    "kind": "user",
    "methods": {
      "proposalDeadline(uint256)": {
        "notice": "Retrieves the deadline for submitting proposals."
      },
      "proposalNeedsQueuing(uint256)": {
        "notice": "Checks if a proposal needs to be queued."
      },
      "proposalThreshold()": {
        "notice": "Retrieves the threshold required for a proposal to be enacted."
      },
      "quorum(uint256)": {
        "notice": "Retrieves the quorum required for a vote to succeed."
      },
      "state(uint256)": {
        "notice": "Retrieves the current state of a proposal."
      },
      "votingDelay()": {
        "notice": "Retrieves the voting delay configured in the settings."
      },
      "votingPeriod()": {
        "notice": "Retrieves the voting period configured in the settings."
      }
    },
    "version": 1
  },
  "storageLayout": {
    "storage": [
      {
        "astId": 387,
        "contract": "contracts/OZGovernor.sol:OZGovernor",
        "label": "_owner",
        "offset": 0,
        "slot": "0",
        "type": "t_address"
      },
      {
        "astId": 7159,
        "contract": "contracts/OZGovernor.sol:OZGovernor",
        "label": "_nameFallback",
        "offset": 0,
        "slot": "1",
        "type": "t_string_storage"
      },
      {
        "astId": 7161,
        "contract": "contracts/OZGovernor.sol:OZGovernor",
        "label": "_versionFallback",
        "offset": 0,
        "slot": "2",
        "type": "t_string_storage"
      },
      {
        "astId": 6138,
        "contract": "contracts/OZGovernor.sol:OZGovernor",
        "label": "_nonces",
        "offset": 0,
        "slot": "3",
        "type": "t_mapping(t_address,t_uint256)"
      },
      {
        "astId": 616,
        "contract": "contracts/OZGovernor.sol:OZGovernor",
        "label": "_name",
        "offset": 0,
        "slot": "4",
        "type": "t_string_storage"
      },
      {
        "astId": 621,
        "contract": "contracts/OZGovernor.sol:OZGovernor",
        "label": "_proposals",
        "offset": 0,
        "slot": "5",
        "type": "t_mapping(t_uint256,t_struct(ProposalCore)594_storage)"
      },
      {
        "astId": 624,
        "contract": "contracts/OZGovernor.sol:OZGovernor",
        "label": "_governanceCall",
        "offset": 0,
        "slot": "6",
        "type": "t_struct(Bytes32Deque)12068_storage"
      },
      {
        "astId": 4214,
        "contract": "contracts/OZGovernor.sol:OZGovernor",
        "label": "_proposalThreshold",
        "offset": 0,
        "slot": "8",
        "type": "t_uint256"
      },
      {
        "astId": 4216,
        "contract": "contracts/OZGovernor.sol:OZGovernor",
        "label": "_votingDelay",
        "offset": 0,
        "slot": "9",
        "type": "t_uint48"
      },
      {
        "astId": 4218,
        "contract": "contracts/OZGovernor.sol:OZGovernor",
        "label": "_votingPeriod",
        "offset": 6,
        "slot": "9",
        "type": "t_uint32"
      },
      {
        "astId": 3837,
        "contract": "contracts/OZGovernor.sol:OZGovernor",
        "label": "_proposalVotes",
        "offset": 0,
        "slot": "10",
        "type": "t_mapping(t_uint256,t_struct(ProposalVote)3832_storage)"
      },
      {
        "astId": 4408,
        "contract": "contracts/OZGovernor.sol:OZGovernor",
        "label": "_proposalIds",
        "offset": 0,
        "slot": "11",
        "type": "t_array(t_uint256)dyn_storage"
      },
      {
        "astId": 4413,
        "contract": "contracts/OZGovernor.sol:OZGovernor",
        "label": "_proposalDetails",
        "offset": 0,
        "slot": "12",
        "type": "t_mapping(t_uint256,t_struct(ProposalDetails)4405_storage)"
      },
      {
        "astId": 4048,
        "contract": "contracts/OZGovernor.sol:OZGovernor",
        "label": "_voteExtension",
        "offset": 0,
        "slot": "13",
        "type": "t_uint48"
      },
      {
        "astId": 4052,
        "contract": "contracts/OZGovernor.sol:OZGovernor",
        "label": "_extendedDeadlines",
        "offset": 0,
        "slot": "14",
        "type": "t_mapping(t_uint256,t_uint48)"
      },
      {
        "astId": 5129,
        "contract": "contracts/OZGovernor.sol:OZGovernor",
        "label": "_quorumNumeratorHistory",
        "offset": 0,
        "slot": "15",
        "type": "t_struct(Trace208)11008_storage"
      },
      {
        "astId": 4667,
        "contract": "contracts/OZGovernor.sol:OZGovernor",
        "label": "_timelock",
        "offset": 0,
        "slot": "16",
        "type": "t_contract(TimelockController)3809"
      },
      {
        "astId": 4671,
        "contract": "contracts/OZGovernor.sol:OZGovernor",
        "label": "_timelockIds",
        "offset": 0,
        "slot": "17",
        "type": "t_mapping(t_uint256,t_bytes32)"
      },
      {
        "astId": 20611,
        "contract": "contracts/OZGovernor.sol:OZGovernor",
        "label": "sablierV2Lockup",
        "offset": 0,
        "slot": "18",
        "type": "t_contract(ISablierV2Lockup)20004"
      },
      {
        "astId": 20615,
        "contract": "contracts/OZGovernor.sol:OZGovernor",
        "label": "_StreamID",
        "offset": 0,
        "slot": "19",
        "type": "t_mapping(t_address,t_uint256)"
      }
    ],
    "types": {
      "t_address": {
        "encoding": "inplace",
        "label": "address",
        "numberOfBytes": "20"
      },
      "t_array(t_address)dyn_storage": {
        "base": "t_address",
        "encoding": "dynamic_array",
        "label": "address[]",
        "numberOfBytes": "32"
      },
      "t_array(t_bytes_storage)dyn_storage": {
        "base": "t_bytes_storage",
        "encoding": "dynamic_array",
        "label": "bytes[]",
        "numberOfBytes": "32"
      },
      "t_array(t_struct(Checkpoint208)11013_storage)dyn_storage": {
        "base": "t_struct(Checkpoint208)11013_storage",
        "encoding": "dynamic_array",
        "label": "struct Checkpoints.Checkpoint208[]",
        "numberOfBytes": "32"
      },
      "t_array(t_uint256)dyn_storage": {
        "base": "t_uint256",
        "encoding": "dynamic_array",
        "label": "uint256[]",
        "numberOfBytes": "32"
      },
      "t_bool": {
        "encoding": "inplace",
        "label": "bool",
        "numberOfBytes": "1"
      },
      "t_bytes32": {
        "encoding": "inplace",
        "label": "bytes32",
        "numberOfBytes": "32"
      },
      "t_bytes_storage": {
        "encoding": "bytes",
        "label": "bytes",
        "numberOfBytes": "32"
      },
      "t_contract(ISablierV2Lockup)20004": {
        "encoding": "inplace",
        "label": "contract ISablierV2Lockup",
        "numberOfBytes": "20"
      },
      "t_contract(TimelockController)3809": {
        "encoding": "inplace",
        "label": "contract TimelockController",
        "numberOfBytes": "20"
      },
      "t_mapping(t_address,t_bool)": {
        "encoding": "mapping",
        "key": "t_address",
        "label": "mapping(address => bool)",
        "numberOfBytes": "32",
        "value": "t_bool"
      },
      "t_mapping(t_address,t_uint256)": {
        "encoding": "mapping",
        "key": "t_address",
        "label": "mapping(address => uint256)",
        "numberOfBytes": "32",
        "value": "t_uint256"
      },
      "t_mapping(t_uint128,t_bytes32)": {
        "encoding": "mapping",
        "key": "t_uint128",
        "label": "mapping(uint128 => bytes32)",
        "numberOfBytes": "32",
        "value": "t_bytes32"
      },
      "t_mapping(t_uint256,t_bytes32)": {
        "encoding": "mapping",
        "key": "t_uint256",
        "label": "mapping(uint256 => bytes32)",
        "numberOfBytes": "32",
        "value": "t_bytes32"
      },
      "t_mapping(t_uint256,t_struct(ProposalCore)594_storage)": {
        "encoding": "mapping",
        "key": "t_uint256",
        "label": "mapping(uint256 => struct Governor.ProposalCore)",
        "numberOfBytes": "32",
        "value": "t_struct(ProposalCore)594_storage"
      },
      "t_mapping(t_uint256,t_struct(ProposalDetails)4405_storage)": {
        "encoding": "mapping",
        "key": "t_uint256",
        "label": "mapping(uint256 => struct GovernorStorage.ProposalDetails)",
        "numberOfBytes": "32",
        "value": "t_struct(ProposalDetails)4405_storage"
      },
      "t_mapping(t_uint256,t_struct(ProposalVote)3832_storage)": {
        "encoding": "mapping",
        "key": "t_uint256",
        "label": "mapping(uint256 => struct GovernorCountingSimple.ProposalVote)",
        "numberOfBytes": "32",
        "value": "t_struct(ProposalVote)3832_storage"
      },
      "t_mapping(t_uint256,t_uint48)": {
        "encoding": "mapping",
        "key": "t_uint256",
        "label": "mapping(uint256 => uint48)",
        "numberOfBytes": "32",
        "value": "t_uint48"
      },
      "t_string_storage": {
        "encoding": "bytes",
        "label": "string",
        "numberOfBytes": "32"
      },
      "t_struct(Bytes32Deque)12068_storage": {
        "encoding": "inplace",
        "label": "struct DoubleEndedQueue.Bytes32Deque",
        "members": [
          {
            "astId": 12061,
            "contract": "contracts/OZGovernor.sol:OZGovernor",
            "label": "_begin",
            "offset": 0,
            "slot": "0",
            "type": "t_uint128"
          },
          {
            "astId": 12063,
            "contract": "contracts/OZGovernor.sol:OZGovernor",
            "label": "_end",
            "offset": 16,
            "slot": "0",
            "type": "t_uint128"
          },
          {
            "astId": 12067,
            "contract": "contracts/OZGovernor.sol:OZGovernor",
            "label": "_data",
            "offset": 0,
            "slot": "1",
            "type": "t_mapping(t_uint128,t_bytes32)"
          }
        ],
        "numberOfBytes": "64"
      },
      "t_struct(Checkpoint208)11013_storage": {
        "encoding": "inplace",
        "label": "struct Checkpoints.Checkpoint208",
        "members": [
          {
            "astId": 11010,
            "contract": "contracts/OZGovernor.sol:OZGovernor",
            "label": "_key",
            "offset": 0,
            "slot": "0",
            "type": "t_uint48"
          },
          {
            "astId": 11012,
            "contract": "contracts/OZGovernor.sol:OZGovernor",
            "label": "_value",
            "offset": 6,
            "slot": "0",
            "type": "t_uint208"
          }
        ],
        "numberOfBytes": "32"
      },
      "t_struct(ProposalCore)594_storage": {
        "encoding": "inplace",
        "label": "struct Governor.ProposalCore",
        "members": [
          {
            "astId": 583,
            "contract": "contracts/OZGovernor.sol:OZGovernor",
            "label": "proposer",
            "offset": 0,
            "slot": "0",
            "type": "t_address"
          },
          {
            "astId": 585,
            "contract": "contracts/OZGovernor.sol:OZGovernor",
            "label": "voteStart",
            "offset": 20,
            "slot": "0",
            "type": "t_uint48"
          },
          {
            "astId": 587,
            "contract": "contracts/OZGovernor.sol:OZGovernor",
            "label": "voteDuration",
            "offset": 26,
            "slot": "0",
            "type": "t_uint32"
          },
          {
            "astId": 589,
            "contract": "contracts/OZGovernor.sol:OZGovernor",
            "label": "executed",
            "offset": 30,
            "slot": "0",
            "type": "t_bool"
          },
          {
            "astId": 591,
            "contract": "contracts/OZGovernor.sol:OZGovernor",
            "label": "canceled",
            "offset": 31,
            "slot": "0",
            "type": "t_bool"
          },
          {
            "astId": 593,
            "contract": "contracts/OZGovernor.sol:OZGovernor",
            "label": "etaSeconds",
            "offset": 0,
            "slot": "1",
            "type": "t_uint48"
          }
        ],
        "numberOfBytes": "64"
      },
      "t_struct(ProposalDetails)4405_storage": {
        "encoding": "inplace",
        "label": "struct GovernorStorage.ProposalDetails",
        "members": [
          {
            "astId": 4396,
            "contract": "contracts/OZGovernor.sol:OZGovernor",
            "label": "targets",
            "offset": 0,
            "slot": "0",
            "type": "t_array(t_address)dyn_storage"
          },
          {
            "astId": 4399,
            "contract": "contracts/OZGovernor.sol:OZGovernor",
            "label": "values",
            "offset": 0,
            "slot": "1",
            "type": "t_array(t_uint256)dyn_storage"
          },
          {
            "astId": 4402,
            "contract": "contracts/OZGovernor.sol:OZGovernor",
            "label": "calldatas",
            "offset": 0,
            "slot": "2",
            "type": "t_array(t_bytes_storage)dyn_storage"
          },
          {
            "astId": 4404,
            "contract": "contracts/OZGovernor.sol:OZGovernor",
            "label": "descriptionHash",
            "offset": 0,
            "slot": "3",
            "type": "t_bytes32"
          }
        ],
        "numberOfBytes": "128"
      },
      "t_struct(ProposalVote)3832_storage": {
        "encoding": "inplace",
        "label": "struct GovernorCountingSimple.ProposalVote",
        "members": [
          {
            "astId": 3823,
            "contract": "contracts/OZGovernor.sol:OZGovernor",
            "label": "againstVotes",
            "offset": 0,
            "slot": "0",
            "type": "t_uint256"
          },
          {
            "astId": 3825,
            "contract": "contracts/OZGovernor.sol:OZGovernor",
            "label": "forVotes",
            "offset": 0,
            "slot": "1",
            "type": "t_uint256"
          },
          {
            "astId": 3827,
            "contract": "contracts/OZGovernor.sol:OZGovernor",
            "label": "abstainVotes",
            "offset": 0,
            "slot": "2",
            "type": "t_uint256"
          },
          {
            "astId": 3831,
            "contract": "contracts/OZGovernor.sol:OZGovernor",
            "label": "hasVoted",
            "offset": 0,
            "slot": "3",
            "type": "t_mapping(t_address,t_bool)"
          }
        ],
        "numberOfBytes": "128"
      },
      "t_struct(Trace208)11008_storage": {
        "encoding": "inplace",
        "label": "struct Checkpoints.Trace208",
        "members": [
          {
            "astId": 11007,
            "contract": "contracts/OZGovernor.sol:OZGovernor",
            "label": "_checkpoints",
            "offset": 0,
            "slot": "0",
            "type": "t_array(t_struct(Checkpoint208)11013_storage)dyn_storage"
          }
        ],
        "numberOfBytes": "32"
      },
      "t_uint128": {
        "encoding": "inplace",
        "label": "uint128",
        "numberOfBytes": "16"
      },
      "t_uint208": {
        "encoding": "inplace",
        "label": "uint208",
        "numberOfBytes": "26"
      },
      "t_uint256": {
        "encoding": "inplace",
        "label": "uint256",
        "numberOfBytes": "32"
      },
      "t_uint32": {
        "encoding": "inplace",
        "label": "uint32",
        "numberOfBytes": "4"
      },
      "t_uint48": {
        "encoding": "inplace",
        "label": "uint48",
        "numberOfBytes": "6"
      }
    }
  }
}