{
  "address": "0x8797847c9d63D8Ed9C30B058F408d4257A33B76C",
  "abi": [
    {
      "inputs": [
        {
          "internalType": "address",
          "name": "admin",
          "type": "address"
        },
        {
          "internalType": "address",
          "name": "_governer",
          "type": "address"
        },
        {
          "internalType": "address",
          "name": "_sablierV2LockupAddress",
          "type": "address"
        },
        {
          "internalType": "address",
          "name": "_token",
          "type": "address"
        },
        {
          "internalType": "uint256",
          "name": "_quorum",
          "type": "uint256"
        }
      ],
      "stateMutability": "nonpayable",
      "type": "constructor"
    },
    {
      "inputs": [],
      "name": "AccessControlBadConfirmation",
      "type": "error"
    },
    {
      "inputs": [
        {
          "internalType": "address",
          "name": "account",
          "type": "address"
        },
        {
          "internalType": "bytes32",
          "name": "neededRole",
          "type": "bytes32"
        }
      ],
      "name": "AccessControlUnauthorizedAccount",
      "type": "error"
    },
    {
      "anonymous": false,
      "inputs": [
        {
          "indexed": true,
          "internalType": "bytes32",
          "name": "role",
          "type": "bytes32"
        },
        {
          "indexed": true,
          "internalType": "bytes32",
          "name": "previousAdminRole",
          "type": "bytes32"
        },
        {
          "indexed": true,
          "internalType": "bytes32",
          "name": "newAdminRole",
          "type": "bytes32"
        }
      ],
      "name": "RoleAdminChanged",
      "type": "event"
    },
    {
      "anonymous": false,
      "inputs": [
        {
          "indexed": true,
          "internalType": "bytes32",
          "name": "role",
          "type": "bytes32"
        },
        {
          "indexed": true,
          "internalType": "address",
          "name": "account",
          "type": "address"
        },
        {
          "indexed": true,
          "internalType": "address",
          "name": "sender",
          "type": "address"
        }
      ],
      "name": "RoleGranted",
      "type": "event"
    },
    {
      "anonymous": false,
      "inputs": [
        {
          "indexed": true,
          "internalType": "bytes32",
          "name": "role",
          "type": "bytes32"
        },
        {
          "indexed": true,
          "internalType": "address",
          "name": "account",
          "type": "address"
        },
        {
          "indexed": true,
          "internalType": "address",
          "name": "sender",
          "type": "address"
        }
      ],
      "name": "RoleRevoked",
      "type": "event"
    },
    {
      "inputs": [],
      "name": "DEFAULT_ADMIN_ROLE",
      "outputs": [
        {
          "internalType": "bytes32",
          "name": "",
          "type": "bytes32"
        }
      ],
      "stateMutability": "view",
      "type": "function"
    },
    {
      "inputs": [],
      "name": "GOVERNOR_ROLE",
      "outputs": [
        {
          "internalType": "bytes32",
          "name": "",
          "type": "bytes32"
        }
      ],
      "stateMutability": "view",
      "type": "function"
    },
    {
      "inputs": [
        {
          "internalType": "address",
          "name": "",
          "type": "address"
        }
      ],
      "name": "Islocked",
      "outputs": [
        {
          "internalType": "bool",
          "name": "",
          "type": "bool"
        }
      ],
      "stateMutability": "view",
      "type": "function"
    },
    {
      "inputs": [],
      "name": "User_withdraw",
      "outputs": [],
      "stateMutability": "nonpayable",
      "type": "function"
    },
    {
      "inputs": [
        {
          "internalType": "address",
          "name": "user",
          "type": "address"
        },
        {
          "internalType": "uint256[]",
          "name": "_streamID",
          "type": "uint256[]"
        }
      ],
      "name": "addStreamID",
      "outputs": [],
      "stateMutability": "nonpayable",
      "type": "function"
    },
    {
      "inputs": [
        {
          "internalType": "uint256",
          "name": "proposalId",
          "type": "uint256"
        }
      ],
      "name": "calculateFinalVotes",
      "outputs": [
        {
          "internalType": "uint256",
          "name": "",
          "type": "uint256"
        },
        {
          "internalType": "uint256",
          "name": "",
          "type": "uint256"
        },
        {
          "internalType": "uint256",
          "name": "",
          "type": "uint256"
        }
      ],
      "stateMutability": "view",
      "type": "function"
    },
    {
      "inputs": [
        {
          "internalType": "address",
          "name": "_user",
          "type": "address"
        }
      ],
      "name": "calculateFinalvotingPower",
      "outputs": [
        {
          "internalType": "uint256",
          "name": "",
          "type": "uint256"
        }
      ],
      "stateMutability": "view",
      "type": "function"
    },
    {
      "inputs": [
        {
          "internalType": "address",
          "name": "delegatee",
          "type": "address"
        }
      ],
      "name": "delegate",
      "outputs": [],
      "stateMutability": "nonpayable",
      "type": "function"
    },
    {
      "inputs": [
        {
          "internalType": "address",
          "name": "delegatee",
          "type": "address"
        },
        {
          "internalType": "uint256",
          "name": "nonce",
          "type": "uint256"
        },
        {
          "internalType": "uint256",
          "name": "expiry",
          "type": "uint256"
        },
        {
          "internalType": "uint8",
          "name": "v",
          "type": "uint8"
        },
        {
          "internalType": "bytes32",
          "name": "r",
          "type": "bytes32"
        },
        {
          "internalType": "bytes32",
          "name": "s",
          "type": "bytes32"
        }
      ],
      "name": "delegateBySig",
      "outputs": [],
      "stateMutability": "nonpayable",
      "type": "function"
    },
    {
      "inputs": [
        {
          "internalType": "address",
          "name": "account",
          "type": "address"
        }
      ],
      "name": "delegates",
      "outputs": [
        {
          "internalType": "address",
          "name": "",
          "type": "address"
        }
      ],
      "stateMutability": "view",
      "type": "function"
    },
    {
      "inputs": [
        {
          "internalType": "address",
          "name": "_user",
          "type": "address"
        },
        {
          "internalType": "uint256",
          "name": "amount",
          "type": "uint256"
        }
      ],
      "name": "deposit",
      "outputs": [
        {
          "internalType": "bool",
          "name": "",
          "type": "bool"
        }
      ],
      "stateMutability": "nonpayable",
      "type": "function"
    },
    {
      "inputs": [
        {
          "internalType": "uint256",
          "name": "_streamID",
          "type": "uint256"
        }
      ],
      "name": "getRemainingamount",
      "outputs": [
        {
          "internalType": "uint256",
          "name": "",
          "type": "uint256"
        }
      ],
      "stateMutability": "view",
      "type": "function"
    },
    {
      "inputs": [
        {
          "internalType": "bytes32",
          "name": "role",
          "type": "bytes32"
        }
      ],
      "name": "getRoleAdmin",
      "outputs": [
        {
          "internalType": "bytes32",
          "name": "",
          "type": "bytes32"
        }
      ],
      "stateMutability": "view",
      "type": "function"
    },
    {
      "inputs": [
        {
          "internalType": "address",
          "name": "_user",
          "type": "address"
        }
      ],
      "name": "getSablierAmount",
      "outputs": [
        {
          "internalType": "uint256[]",
          "name": "",
          "type": "uint256[]"
        }
      ],
      "stateMutability": "view",
      "type": "function"
    },
    {
      "inputs": [],
      "name": "getTotalSupply",
      "outputs": [
        {
          "internalType": "uint256",
          "name": "",
          "type": "uint256"
        }
      ],
      "stateMutability": "view",
      "type": "function"
    },
    {
      "inputs": [
        {
          "internalType": "address",
          "name": "_user",
          "type": "address"
        }
      ],
      "name": "getUserdepositAmount",
      "outputs": [
        {
          "internalType": "uint256",
          "name": "",
          "type": "uint256"
        }
      ],
      "stateMutability": "view",
      "type": "function"
    },
    {
      "inputs": [
        {
          "internalType": "address",
          "name": "account",
          "type": "address"
        }
      ],
      "name": "getVotes",
      "outputs": [
        {
          "internalType": "uint256",
          "name": "",
          "type": "uint256"
        }
      ],
      "stateMutability": "view",
      "type": "function"
    },
    {
      "inputs": [
        {
          "internalType": "address",
          "name": "user",
          "type": "address"
        }
      ],
      "name": "getstreamID",
      "outputs": [
        {
          "internalType": "uint256[]",
          "name": "",
          "type": "uint256[]"
        }
      ],
      "stateMutability": "view",
      "type": "function"
    },
    {
      "inputs": [
        {
          "internalType": "address",
          "name": "_user",
          "type": "address"
        }
      ],
      "name": "gettotalamount",
      "outputs": [
        {
          "internalType": "uint256",
          "name": "",
          "type": "uint256"
        }
      ],
      "stateMutability": "view",
      "type": "function"
    },
    {
      "inputs": [
        {
          "internalType": "bytes32",
          "name": "role",
          "type": "bytes32"
        },
        {
          "internalType": "address",
          "name": "account",
          "type": "address"
        }
      ],
      "name": "grantRole",
      "outputs": [],
      "stateMutability": "nonpayable",
      "type": "function"
    },
    {
      "inputs": [
        {
          "internalType": "uint256",
          "name": "proposalId",
          "type": "uint256"
        },
        {
          "internalType": "address",
          "name": "_user",
          "type": "address"
        },
        {
          "internalType": "uint8",
          "name": "_voteFlag",
          "type": "uint8"
        }
      ],
      "name": "handleVotes",
      "outputs": [],
      "stateMutability": "nonpayable",
      "type": "function"
    },
    {
      "inputs": [
        {
          "internalType": "bytes32",
          "name": "role",
          "type": "bytes32"
        },
        {
          "internalType": "address",
          "name": "account",
          "type": "address"
        }
      ],
      "name": "hasRole",
      "outputs": [
        {
          "internalType": "bool",
          "name": "",
          "type": "bool"
        }
      ],
      "stateMutability": "view",
      "type": "function"
    },
    {
      "inputs": [
        {
          "internalType": "uint256",
          "name": "proposalId",
          "type": "uint256"
        },
        {
          "internalType": "address",
          "name": "user",
          "type": "address"
        }
      ],
      "name": "hasVoted",
      "outputs": [
        {
          "internalType": "bool",
          "name": "",
          "type": "bool"
        }
      ],
      "stateMutability": "view",
      "type": "function"
    },
    {
      "inputs": [
        {
          "internalType": "address",
          "name": "_user",
          "type": "address"
        }
      ],
      "name": "lock",
      "outputs": [
        {
          "internalType": "bool",
          "name": "",
          "type": "bool"
        }
      ],
      "stateMutability": "nonpayable",
      "type": "function"
    },
    {
      "inputs": [
        {
          "internalType": "uint256",
          "name": "proposalId",
          "type": "uint256"
        }
      ],
      "name": "proposalVotes",
      "outputs": [
        {
          "internalType": "uint256",
          "name": "againstVotes",
          "type": "uint256"
        },
        {
          "internalType": "uint256",
          "name": "forVotes",
          "type": "uint256"
        },
        {
          "internalType": "uint256",
          "name": "abstainVotes",
          "type": "uint256"
        }
      ],
      "stateMutability": "view",
      "type": "function"
    },
    {
      "inputs": [],
      "name": "quorum",
      "outputs": [
        {
          "internalType": "uint256",
          "name": "",
          "type": "uint256"
        }
      ],
      "stateMutability": "view",
      "type": "function"
    },
    {
      "inputs": [
        {
          "internalType": "bytes32",
          "name": "role",
          "type": "bytes32"
        },
        {
          "internalType": "address",
          "name": "callerConfirmation",
          "type": "address"
        }
      ],
      "name": "renounceRole",
      "outputs": [],
      "stateMutability": "nonpayable",
      "type": "function"
    },
    {
      "inputs": [
        {
          "internalType": "bytes32",
          "name": "role",
          "type": "bytes32"
        },
        {
          "internalType": "address",
          "name": "account",
          "type": "address"
        }
      ],
      "name": "revokeRole",
      "outputs": [],
      "stateMutability": "nonpayable",
      "type": "function"
    },
    {
      "inputs": [],
      "name": "sablierV2Lockup",
      "outputs": [
        {
          "internalType": "contract ISablierV2Lockup",
          "name": "",
          "type": "address"
        }
      ],
      "stateMutability": "view",
      "type": "function"
    },
    {
      "inputs": [
        {
          "internalType": "address",
          "name": "",
          "type": "address"
        }
      ],
      "name": "sabliertotalUserAmount",
      "outputs": [
        {
          "internalType": "uint256",
          "name": "",
          "type": "uint256"
        }
      ],
      "stateMutability": "view",
      "type": "function"
    },
    {
      "inputs": [
        {
          "internalType": "uint256",
          "name": "_value",
          "type": "uint256"
        }
      ],
      "name": "setVotingLimitProportion",
      "outputs": [],
      "stateMutability": "nonpayable",
      "type": "function"
    },
    {
      "inputs": [
        {
          "internalType": "address",
          "name": "",
          "type": "address"
        }
      ],
      "name": "staked",
      "outputs": [
        {
          "internalType": "uint256",
          "name": "",
          "type": "uint256"
        }
      ],
      "stateMutability": "view",
      "type": "function"
    },
    {
      "inputs": [
        {
          "internalType": "uint256",
          "name": "",
          "type": "uint256"
        }
      ],
      "name": "stakers",
      "outputs": [
        {
          "internalType": "address",
          "name": "",
          "type": "address"
        }
      ],
      "stateMutability": "view",
      "type": "function"
    },
    {
      "inputs": [
        {
          "internalType": "address",
          "name": "",
          "type": "address"
        },
        {
          "internalType": "uint256",
          "name": "",
          "type": "uint256"
        }
      ],
      "name": "streamID",
      "outputs": [
        {
          "internalType": "uint256",
          "name": "",
          "type": "uint256"
        }
      ],
      "stateMutability": "view",
      "type": "function"
    },
    {
      "inputs": [
        {
          "internalType": "bytes4",
          "name": "interfaceId",
          "type": "bytes4"
        }
      ],
      "name": "supportsInterface",
      "outputs": [
        {
          "internalType": "bool",
          "name": "",
          "type": "bool"
        }
      ],
      "stateMutability": "view",
      "type": "function"
    },
    {
      "inputs": [
        {
          "internalType": "address",
          "name": "",
          "type": "address"
        }
      ],
      "name": "timeofdeposit",
      "outputs": [
        {
          "internalType": "uint256",
          "name": "",
          "type": "uint256"
        }
      ],
      "stateMutability": "view",
      "type": "function"
    },
    {
      "inputs": [],
      "name": "token",
      "outputs": [
        {
          "internalType": "address",
          "name": "",
          "type": "address"
        }
      ],
      "stateMutability": "view",
      "type": "function"
    },
    {
      "inputs": [],
      "name": "totalOverflowVotes",
      "outputs": [
        {
          "internalType": "uint256",
          "name": "",
          "type": "uint256"
        }
      ],
      "stateMutability": "view",
      "type": "function"
    },
    {
      "inputs": [],
      "name": "totalStaked",
      "outputs": [
        {
          "internalType": "uint256",
          "name": "",
          "type": "uint256"
        }
      ],
      "stateMutability": "view",
      "type": "function"
    },
    {
      "inputs": [
        {
          "internalType": "address",
          "name": "_user",
          "type": "address"
        }
      ],
      "name": "unlock",
      "outputs": [
        {
          "internalType": "bool",
          "name": "",
          "type": "bool"
        }
      ],
      "stateMutability": "nonpayable",
      "type": "function"
    },
    {
      "inputs": [
        {
          "internalType": "address",
          "name": "_newAddress",
          "type": "address"
        }
      ],
      "name": "updateSablierV2Lockup",
      "outputs": [],
      "stateMutability": "nonpayable",
      "type": "function"
    },
    {
      "inputs": [],
      "name": "votingLimitProportion",
      "outputs": [
        {
          "internalType": "uint256",
          "name": "",
          "type": "uint256"
        }
      ],
      "stateMutability": "view",
      "type": "function"
    }
  ],
  "transactionHash": "0x26b88cf949e1ea1b345e2c4332878c748a47ffe25b345049aa23eb789191ad18",
  "args": [
    "0xf39Fd6e51aad88F6F4ce6aB8827279cffFb92266",
    "0xf39Fd6e51aad88F6F4ce6aB8827279cffFb92266",
    "0x7a43F8a888fa15e68C103E18b0439Eb1e98E4301",
    "0xE55cc27460B55c8aC7E73043F38b537758C9E51e",
    "100000000000000000000"
  ],
  "numDeployments": 5,
  "solcInputHash": "29d751dd02ab6b280fbb599e6117c41b",
  "bytecode": "0x608060405267016345785d8a00006004553480156200001d57600080fd5b5060405162001a6638038062001a668339810160408190526200004091620001a2565b6200004d600030620000d6565b506001600160a01b038516156200006d576200006b600086620000d6565b505b620000997f7935bd0ae54bc31f548c14dba4d37c5c64b3f8ca900cb468fb8abd54d5894f5585620000d6565b50600180546001600160a01b039485166001600160a01b031991821617909155600280549390941692169190911790915560095550620002099050565b6000828152602081815260408083206001600160a01b038516845290915281205460ff166200017b576000838152602081815260408083206001600160a01b03861684529091529020805460ff19166001179055620001323390565b6001600160a01b0316826001600160a01b0316847f2f8788117e7eff1d82e926ec794901d17c78024a50270940304540a733656f0d60405160405180910390a45060016200017f565b5060005b92915050565b80516001600160a01b03811681146200019d57600080fd5b919050565b600080600080600060a08688031215620001bb57600080fd5b620001c68662000185565b9450620001d66020870162000185565b9350620001e66040870162000185565b9250620001f66060870162000185565b9150608086015190509295509295909350565b61184d80620002196000396000f3fe608060405234801561001057600080fd5b506004361061025e5760003560e01c80636cc619cb11610146578063a217fddf116100c3578063c4e41b2211610087578063c4e41b22146105d8578063ccc57490146105e0578063d547741f146105f5578063f435f5a714610608578063fc0c546a1461061b578063fd5e6dd11461062e57600080fd5b8063a217fddf14610581578063ba387f4414610589578063bee7afbc1461059c578063c198173c146105af578063c3cda520146105c257600080fd5b806391d148541161010a57806391d1485414610515578063923e05be1461052857806398807d841461053b5780639ab24eb01461055b578063a098c3471461056e57600080fd5b80636cc619cb146104b35780637bab07d5146104c6578063817b1cd2146104d95780638b5e13fe146104e25780638f312a361461050257600080fd5b806336568abe116101df578063544ffc9c116101a3578063544ffc9c146103fa578063587cde1e146104425780635a993f21146104565780635b4f507a146104795780635c19a95c146104825780636b665de21461049357600080fd5b806336568abe14610370578063438596321461038357806343e51928146103bf57806347e7ef24146103c757806348d9acef146103da57600080fd5b8063248a9ca311610226578063248a9ca3146102d15780632c54e55e146102f45780632f2ff15d1461031d5780632f6c493c146103325780633328bcfc1461034557600080fd5b806301ffc9a714610263578063166e09dd1461028b5780631703a018146102ac5780631e2dd599146102b5578063219ca3a9146102c8575b600080fd5b61027661027136600461146b565b610641565b60405190151581526020015b60405180910390f35b61029e6102993660046114b8565b610678565b604051908152602001610282565b61029e60095481565b61029e6102c33660046114b8565b6106b3565b61029e60055481565b61029e6102df3660046114d3565b60009081526020819052604090206001015490565b61029e6103023660046114b8565b6001600160a01b031660009081526006602052604090205490565b61033061032b3660046114ec565b61070f565b005b6102766103403660046114b8565b61073a565b600154610358906001600160a01b031681565b6040516001600160a01b039091168152602001610282565b61033061037e3660046114ec565b6107a0565b6102766103913660046114ec565b60008281526003602081815260408084206001600160a01b0386168552909201905290205460ff1692915050565b6103306107d8565b6102766103d5366004611518565b6108a6565b61029e6103e83660046114b8565b600a6020526000908152604090205481565b6104276104083660046114d3565b6000908152600360205260409020600181015481546002909201549092565b60408051938452602084019290925290820152606001610282565b6103586104503660046114b8565b50600090565b6102766104643660046114b8565b600d6020526000908152604090205460ff1681565b61029e60045481565b6103306104903660046114b8565b50565b61029e6104a13660046114b8565b600c6020526000908152604090205481565b61029e6104c13660046114d3565b610a45565b6103306104d43660046114d3565b610ba3565b61029e60085481565b6104f56104f03660046114b8565b610bd1565b6040516102829190611542565b6104f56105103660046114b8565b610d11565b6102766105233660046114ec565b610d7d565b6103306105363660046114b8565b610da6565b61029e6105493660046114b8565b60066020526000908152604090205481565b61029e6105693660046114b8565b610df1565b61033061057c366004611586565b610dfc565b61029e600081565b6104276105973660046114d3565b610e4e565b6103306105aa36600461161d565b610faf565b61029e6105bd366004611518565b611173565b6103306105d0366004611659565b505050505050565b61029e6111a4565b61029e60008051602061182183398151915281565b6103306106033660046114ec565b611217565b6102766106163660046114b8565b61123c565b600254610358906001600160a01b031681565b61035861063c3660046114d3565b61129d565b60006001600160e01b03198216637965db0b60e01b148061067257506301ffc9a760e01b6001600160e01b03198316145b92915050565b6001600160a01b038116600090815260066020526040812054600061069c846106b3565b905060006106aa82846116c7565b95945050505050565b6000806106bf83610bd1565b90506000805b8251811015610707578281815181106106e0576106e06116da565b6020026020010151826106f391906116c7565b9150806106ff816116f0565b9150506106c5565b509392505050565b60008281526020819052604090206001015461072a816112c7565b61073483836112d1565b50505050565b6001600160a01b038116600090815260066020526040812054829061077a5760405162461bcd60e51b815260040161077190611709565b60405180910390fd5b50506001600160a01b03166000908152600d60205260409020805460ff19169055600190565b6001600160a01b03811633146107c95760405163334bd91960e11b815260040160405180910390fd5b6107d38282611363565b505050565b336000818152600660205260409020546108045760405162461bcd60e51b815260040161077190611709565b336000908152600660205260408120805490829055600880549192839261082c908490611733565b909155505060025460405163a9059cbb60e01b8152336004820152602481018390526001600160a01b039091169063a9059cbb906044016020604051808303816000875af1158015610882573d6000803e3d6000fd5b505050506040513d601f19601f820116820180604052508101906107d39190611746565b60008082116108f75760405162461bcd60e51b815260206004820152601d60248201527f416d6f756e74206d7573742062652067726561746572207468616e20300000006044820152606401610771565b6002546040516323b872dd60e01b8152336004820152306024820152604481018490526001600160a01b03909116906323b872dd906064016020604051808303816000875af115801561094e573d6000803e3d6000fd5b505050506040513d601f19601f820116820180604052508101906109729190611746565b506001600160a01b03831660009081526006602052604081205490036109de57600780546001810182556000919091527fa66cc928b5edb82af9bd49922954155ab7b0942694bea4ce44661d9a8736c6880180546001600160a01b0319166001600160a01b0385161790555b6001600160a01b03831660009081526006602052604081208054849290610a069084906116c7565b925050819055508160086000828254610a1f91906116c7565b909155505050506001600160a01b03166000908152600a60205260409020429055600190565b600154604051634869e12d60e01b81526004810183905260009182916001600160a01b0390911690634869e12d90602401602060405180830381865afa158015610a93573d6000803e3d6000fd5b505050506040513d601f19601f82011682018060405250810190610ab79190611768565b60015460405163a80fc07160e01b8152600481018690529192506000916001600160a01b039091169063a80fc07190602401602060405180830381865afa158015610b06573d6000803e3d6000fd5b505050506040513d601f19601f82011682018060405250810190610b2a9190611768565b9050806001600160801b0316826001600160801b03161115610b855760405162461bcd60e51b8152602060048201526014602482015273496e76616c69642073747265616d20737461746560601b6044820152606401610771565b6000610b918383611791565b6001600160801b031695945050505050565b600080516020611821833981519152610bbd816000610d7d565b610bcb57610bcb81336113ce565b50600455565b60606000610bde83610d11565b905060608151600014610c3657815167ffffffffffffffff811115610c0557610c056117b8565b604051908082528060200260200182016040528015610c2e578160200160208202803683370190505b509050610c5c565b604080516001808252818301909252906020808301908036833701905050949350505050565b600182511115610cc95760005b8251811015610707576000838281518110610c8657610c866116da565b60200260200101519050610c9981610a45565b838381518110610cab57610cab6116da565b60209081029190910101525080610cc1816116f0565b915050610c69565b610cec82600081518110610cdf57610cdf6116da565b6020026020010151610a45565b81600081518110610cff57610cff6116da565b60209081029190910101529392505050565b6001600160a01b0381166000908152600b6020908152604091829020805483518184028101840190945280845260609392830182828015610d7157602002820191906000526020600020905b815481526020019060010190808311610d5d575b50505050509050919050565b6000918252602082815260408084206001600160a01b0393909316845291905290205460ff1690565b600080516020611821833981519152610dc0816000610d7d565b610dce57610dce81336113ce565b50600180546001600160a01b0319166001600160a01b0392909216919091179055565b600061067282610678565b600080516020611821833981519152610e16816000610d7d565b610e2457610e2481336113ce565b6001600160a01b0384166000908152600b60205260409020610e4790848461140b565b5050505050565b60008181526003602052604081208054600182015460029092015483928392918381610e7a85856116c7565b610e8491906116c7565b610e9684670de0b6b3a76400006117ce565b610ea091906117e5565b90506000670de0b6b3a764000082600554610ebb91906117ce565b610ec591906117e5565b9050600083610ed487876116c7565b610ede91906116c7565b610ef087670de0b6b3a76400006117ce565b610efa91906117e5565b90506000670de0b6b3a764000082600554610f1591906117ce565b610f1f91906117e5565b9050600085610f2e89896116c7565b610f3891906116c7565b610f4a87670de0b6b3a76400006117ce565b610f5491906117e5565b90506000670de0b6b3a764000082600554610f6f91906117ce565b610f7991906117e5565b9050610f8585896116c7565b610f8f848b6116c7565b610f99838a6116c7565b9b509b509b505050505050505050509193909250565b600080516020611821833981519152610fc9816000610d7d565b610fd757610fd781336113ce565b6000610fe284610678565b90506000600260009054906101000a90046001600160a01b03166001600160a01b03166318160ddd6040518163ffffffff1660e01b8152600401602060405180830381865afa158015611039573d6000803e3d6000fd5b505050506040513d601f19601f8201168201806040525081019061105d9190611807565b90506000670de0b6b3a76400008260045461107891906117ce565b61108291906117e5565b9050808311156110b65760006110988285611733565b905081935080600560008282546110af91906116c7565b9091555050505b60001960ff8616016110eb57600087815260036020526040812080548592906110e09084906116c7565b9091555061113b9050565b60ff851661111457600087815260036020526040812060010180548592906110e09084906116c7565b600087815260036020526040812060020180548592906111359084906116c7565b90915550505b505050600093845250506003602081815260408085206001600160a01b0390941685529290910190529020805460ff19166001179055565b600b602052816000526040600020818154811061118f57600080fd5b90600052602060002001600091509150505481565b600254604080516318160ddd60e01b815290516000926001600160a01b0316916318160ddd9160048083019260209291908290030181865afa1580156111ee573d6000803e3d6000fd5b505050506040513d601f19601f820116820180604052508101906112129190611807565b905090565b600082815260208190526040902060010154611232816112c7565b6107348383611363565b6001600160a01b03811660009081526006602052604081205482906112735760405162461bcd60e51b815260040161077190611709565b50506001600160a01b03166000908152600d60205260409020805460ff1916600190811790915590565b600781815481106112ad57600080fd5b6000918252602090912001546001600160a01b0316905081565b61049081336113ce565b60006112dd8383610d7d565b61135b576000838152602081815260408083206001600160a01b03861684529091529020805460ff191660011790556113133390565b6001600160a01b0316826001600160a01b0316847f2f8788117e7eff1d82e926ec794901d17c78024a50270940304540a733656f0d60405160405180910390a4506001610672565b506000610672565b600061136f8383610d7d565b1561135b576000838152602081815260408083206001600160a01b0386168085529252808320805460ff1916905551339286917ff6391f5c32d9c69d2a47ea670b442974b53935d1edc7fd64eb21e047a839171b9190a4506001610672565b6113d88282610d7d565b6114075760405163e2517d3f60e01b81526001600160a01b038216600482015260248101839052604401610771565b5050565b828054828255906000526020600020908101928215611446579160200282015b8281111561144657823582559160200191906001019061142b565b50611452929150611456565b5090565b5b808211156114525760008155600101611457565b60006020828403121561147d57600080fd5b81356001600160e01b03198116811461149557600080fd5b9392505050565b80356001600160a01b03811681146114b357600080fd5b919050565b6000602082840312156114ca57600080fd5b6114958261149c565b6000602082840312156114e557600080fd5b5035919050565b600080604083850312156114ff57600080fd5b8235915061150f6020840161149c565b90509250929050565b6000806040838503121561152b57600080fd5b6115348361149c565b946020939093013593505050565b6020808252825182820181905260009190848201906040850190845b8181101561157a5783518352928401929184019160010161155e565b50909695505050505050565b60008060006040848603121561159b57600080fd5b6115a48461149c565b9250602084013567ffffffffffffffff808211156115c157600080fd5b818601915086601f8301126115d557600080fd5b8135818111156115e457600080fd5b8760208260051b85010111156115f957600080fd5b6020830194508093505050509250925092565b803560ff811681146114b357600080fd5b60008060006060848603121561163257600080fd5b833592506116426020850161149c565b91506116506040850161160c565b90509250925092565b60008060008060008060c0878903121561167257600080fd5b61167b8761149c565b955060208701359450604087013593506116976060880161160c565b92506080870135915060a087013590509295509295509295565b634e487b7160e01b600052601160045260246000fd5b80820180821115610672576106726116b1565b634e487b7160e01b600052603260045260246000fd5b600060018201611702576117026116b1565b5060010190565b60208082526010908201526f139bc81d1bdad95b9cc81cdd185ad95960821b604082015260600190565b81810381811115610672576106726116b1565b60006020828403121561175857600080fd5b8151801515811461149557600080fd5b60006020828403121561177a57600080fd5b81516001600160801b038116811461149557600080fd5b6001600160801b038281168282160390808211156117b1576117b16116b1565b5092915050565b634e487b7160e01b600052604160045260246000fd5b8082028115828204841417610672576106726116b1565b60008261180257634e487b7160e01b600052601260045260246000fd5b500490565b60006020828403121561181957600080fd5b505191905056fe7935bd0ae54bc31f548c14dba4d37c5c64b3f8ca900cb468fb8abd54d5894f55a164736f6c6343000814000a",
  "devdoc": {
    "errors": {
      "AccessControlBadConfirmation()": [
        {
          "details": "The caller of a function is not the expected one. NOTE: Don't confuse with {AccessControlUnauthorizedAccount}."
        }
      ],
      "AccessControlUnauthorizedAccount(address,bytes32)": [
        {
          "details": "The `account` is missing a role."
        }
      ]
    },
    "events": {
      "RoleAdminChanged(bytes32,bytes32,bytes32)": {
        "details": "Emitted when `newAdminRole` is set as ``role``'s admin role, replacing `previousAdminRole` `DEFAULT_ADMIN_ROLE` is the starting admin for all roles, despite {RoleAdminChanged} not being emitted signaling this."
      },
      "RoleGranted(bytes32,address,address)": {
        "details": "Emitted when `account` is granted `role`. `sender` is the account that originated the contract call, an admin role bearer except when using {AccessControl-_setupRole}."
      },
      "RoleRevoked(bytes32,address,address)": {
        "details": "Emitted when `account` is revoked `role`. `sender` is the account that originated the contract call:   - if using `revokeRole`, it is the admin role bearer   - if using `renounceRole`, it is the role bearer (i.e. `account`)"
      }
    },
    "kind": "dev",
    "methods": {
      "delegate(address)": {
        "details": "Delegates votes from the sender to `delegatee`."
      },
      "delegateBySig(address,uint256,uint256,uint8,bytes32,bytes32)": {
        "details": "Delegates votes from signer to `delegatee`."
      },
      "delegates(address)": {
        "details": "Returns the delegate that `account` has chosen."
      },
      "getRoleAdmin(bytes32)": {
        "details": "Returns the admin role that controls `role`. See {grantRole} and {revokeRole}. To change a role's admin, use {_setRoleAdmin}."
      },
      "getVotes(address)": {
        "details": "Returns the current amount of votes that `account` has."
      },
      "grantRole(bytes32,address)": {
        "details": "Grants `role` to `account`. If `account` had not been already granted `role`, emits a {RoleGranted} event. Requirements: - the caller must have ``role``'s admin role. May emit a {RoleGranted} event."
      },
      "hasRole(bytes32,address)": {
        "details": "Returns `true` if `account` has been granted `role`."
      },
      "proposalVotes(uint256)": {
        "details": "Accessor to the internal vote counts."
      },
      "renounceRole(bytes32,address)": {
        "details": "Revokes `role` from the calling account. Roles are often managed via {grantRole} and {revokeRole}: this function's purpose is to provide a mechanism for accounts to lose their privileges if they are compromised (such as when a trusted device is misplaced). If the calling account had been revoked `role`, emits a {RoleRevoked} event. Requirements: - the caller must be `callerConfirmation`. May emit a {RoleRevoked} event."
      },
      "revokeRole(bytes32,address)": {
        "details": "Revokes `role` from `account`. If `account` had been granted `role`, emits a {RoleRevoked} event. Requirements: - the caller must have ``role``'s admin role. May emit a {RoleRevoked} event."
      },
      "supportsInterface(bytes4)": {
        "details": "See {IERC165-supportsInterface}."
      }
    },
    "version": 1
  },
  "userdoc": {
    "kind": "user",
    "methods": {},
    "version": 1
  },
  "storageLayout": {
    "storage": [
      {
        "astId": 26,
        "contract": "contracts/EvoxSablier.sol:EvoxSablier",
        "label": "_roles",
        "offset": 0,
        "slot": "0",
        "type": "t_mapping(t_bytes32,t_struct(RoleData)21_storage)"
      },
      {
        "astId": 20967,
        "contract": "contracts/EvoxSablier.sol:EvoxSablier",
        "label": "sablierV2Lockup",
        "offset": 0,
        "slot": "1",
        "type": "t_contract(ISablierV2Lockup)20174"
      },
      {
        "astId": 20969,
        "contract": "contracts/EvoxSablier.sol:EvoxSablier",
        "label": "token",
        "offset": 0,
        "slot": "2",
        "type": "t_address"
      },
      {
        "astId": 20990,
        "contract": "contracts/EvoxSablier.sol:EvoxSablier",
        "label": "proposalInfo",
        "offset": 0,
        "slot": "3",
        "type": "t_mapping(t_uint256,t_struct(ProposalVote)20985_storage)"
      },
      {
        "astId": 20993,
        "contract": "contracts/EvoxSablier.sol:EvoxSablier",
        "label": "votingLimitProportion",
        "offset": 0,
        "slot": "4",
        "type": "t_uint256"
      },
      {
        "astId": 20995,
        "contract": "contracts/EvoxSablier.sol:EvoxSablier",
        "label": "totalOverflowVotes",
        "offset": 0,
        "slot": "5",
        "type": "t_uint256"
      },
      {
        "astId": 20999,
        "contract": "contracts/EvoxSablier.sol:EvoxSablier",
        "label": "staked",
        "offset": 0,
        "slot": "6",
        "type": "t_mapping(t_address,t_uint256)"
      },
      {
        "astId": 21002,
        "contract": "contracts/EvoxSablier.sol:EvoxSablier",
        "label": "stakers",
        "offset": 0,
        "slot": "7",
        "type": "t_array(t_address)dyn_storage"
      },
      {
        "astId": 21004,
        "contract": "contracts/EvoxSablier.sol:EvoxSablier",
        "label": "totalStaked",
        "offset": 0,
        "slot": "8",
        "type": "t_uint256"
      },
      {
        "astId": 21006,
        "contract": "contracts/EvoxSablier.sol:EvoxSablier",
        "label": "quorum",
        "offset": 0,
        "slot": "9",
        "type": "t_uint256"
      },
      {
        "astId": 21010,
        "contract": "contracts/EvoxSablier.sol:EvoxSablier",
        "label": "timeofdeposit",
        "offset": 0,
        "slot": "10",
        "type": "t_mapping(t_address,t_uint256)"
      },
      {
        "astId": 21015,
        "contract": "contracts/EvoxSablier.sol:EvoxSablier",
        "label": "streamID",
        "offset": 0,
        "slot": "11",
        "type": "t_mapping(t_address,t_array(t_uint256)dyn_storage)"
      },
      {
        "astId": 21019,
        "contract": "contracts/EvoxSablier.sol:EvoxSablier",
        "label": "sabliertotalUserAmount",
        "offset": 0,
        "slot": "12",
        "type": "t_mapping(t_address,t_uint256)"
      },
      {
        "astId": 21023,
        "contract": "contracts/EvoxSablier.sol:EvoxSablier",
        "label": "Islocked",
        "offset": 0,
        "slot": "13",
        "type": "t_mapping(t_address,t_bool)"
      }
    ],
    "types": {
      "t_address": {
        "encoding": "inplace",
        "label": "address",
        "numberOfBytes": "20"
      },
      "t_array(t_address)dyn_storage": {
        "base": "t_address",
        "encoding": "dynamic_array",
        "label": "address[]",
        "numberOfBytes": "32"
      },
      "t_array(t_uint256)dyn_storage": {
        "base": "t_uint256",
        "encoding": "dynamic_array",
        "label": "uint256[]",
        "numberOfBytes": "32"
      },
      "t_bool": {
        "encoding": "inplace",
        "label": "bool",
        "numberOfBytes": "1"
      },
      "t_bytes32": {
        "encoding": "inplace",
        "label": "bytes32",
        "numberOfBytes": "32"
      },
      "t_contract(ISablierV2Lockup)20174": {
        "encoding": "inplace",
        "label": "contract ISablierV2Lockup",
        "numberOfBytes": "20"
      },
      "t_mapping(t_address,t_array(t_uint256)dyn_storage)": {
        "encoding": "mapping",
        "key": "t_address",
        "label": "mapping(address => uint256[])",
        "numberOfBytes": "32",
        "value": "t_array(t_uint256)dyn_storage"
      },
      "t_mapping(t_address,t_bool)": {
        "encoding": "mapping",
        "key": "t_address",
        "label": "mapping(address => bool)",
        "numberOfBytes": "32",
        "value": "t_bool"
      },
      "t_mapping(t_address,t_uint256)": {
        "encoding": "mapping",
        "key": "t_address",
        "label": "mapping(address => uint256)",
        "numberOfBytes": "32",
        "value": "t_uint256"
      },
      "t_mapping(t_bytes32,t_struct(RoleData)21_storage)": {
        "encoding": "mapping",
        "key": "t_bytes32",
        "label": "mapping(bytes32 => struct AccessControl.RoleData)",
        "numberOfBytes": "32",
        "value": "t_struct(RoleData)21_storage"
      },
      "t_mapping(t_uint256,t_struct(ProposalVote)20985_storage)": {
        "encoding": "mapping",
        "key": "t_uint256",
        "label": "mapping(uint256 => struct EvoxSablier.ProposalVote)",
        "numberOfBytes": "32",
        "value": "t_struct(ProposalVote)20985_storage"
      },
      "t_struct(ProposalVote)20985_storage": {
        "encoding": "inplace",
        "label": "struct EvoxSablier.ProposalVote",
        "members": [
          {
            "astId": 20976,
            "contract": "contracts/EvoxSablier.sol:EvoxSablier",
            "label": "againstVotes",
            "offset": 0,
            "slot": "0",
            "type": "t_uint256"
          },
          {
            "astId": 20978,
            "contract": "contracts/EvoxSablier.sol:EvoxSablier",
            "label": "forVotes",
            "offset": 0,
            "slot": "1",
            "type": "t_uint256"
          },
          {
            "astId": 20980,
            "contract": "contracts/EvoxSablier.sol:EvoxSablier",
            "label": "abstainVotes",
            "offset": 0,
            "slot": "2",
            "type": "t_uint256"
          },
          {
            "astId": 20984,
            "contract": "contracts/EvoxSablier.sol:EvoxSablier",
            "label": "hasVoted",
            "offset": 0,
            "slot": "3",
            "type": "t_mapping(t_address,t_bool)"
          }
        ],
        "numberOfBytes": "128"
      },
      "t_struct(RoleData)21_storage": {
        "encoding": "inplace",
        "label": "struct AccessControl.RoleData",
        "members": [
          {
            "astId": 18,
            "contract": "contracts/EvoxSablier.sol:EvoxSablier",
            "label": "hasRole",
            "offset": 0,
            "slot": "0",
            "type": "t_mapping(t_address,t_bool)"
          },
          {
            "astId": 20,
            "contract": "contracts/EvoxSablier.sol:EvoxSablier",
            "label": "adminRole",
            "offset": 0,
            "slot": "1",
            "type": "t_bytes32"
          }
        ],
        "numberOfBytes": "64"
      },
      "t_uint256": {
        "encoding": "inplace",
        "label": "uint256",
        "numberOfBytes": "32"
      }
    }
  }
}